AFLY00ba 0102330
HFDTE130819
HFFXA010
HFPLTPILOT:FONSECA         
HFCM2CREW2:NKN
HFGTYGLIDERTYPE:WW SPORT 2      
HFGIDGLIDERID:GOLCONDA        
HFDTM100GPSDATUM:WGS84
HFRFWFIRMWAREVERSION: 2.00.00
HFRHWHARDWAREVERSION:1.00
HFFTYFRTYPE:Flytec Element Track
HFGPS:FASTRAX,IT430,48
HFPRSPRESSALTSENSOR:INTERSEMA,MS5401BM,12000
HFALGALTGPS:GEO
HFALPALTPRESSURE:ISA
HFTZNUTCOFFSET:  0.00h
I033638FXA3940SIU4143TAS
C130819192852130819002201
C3215845N10129501W TAKEOFF
C3215845N10129501W START  59T              00000000007960000000360000AREA
C3200923N10146066W TURN   2100KM           00000000000990000000360000AREA
C3153345N10142575W FINISH 39T              00000000005970000000360000AREA
C3153345N10142575W LANDING
F20143802051213152021252629
B2014383212187N10131596WA007680077700510000
F20150802051213152021252629
B2015083212187N10131596WA007690077700310000
F20153802051213152021252629
B2015383212187N10131596WA007680077700310000
F20160802051213152021252629
B2016083212187N10131596WA007690077700510000
F20163802051213152021252629
B2016383212187N10131596WA007690077700310000
F20170802051213152021252629
B2017083212187N10131596WA007690077700310000
F20173802051213152021252629
B2017383212187N10131596WA007690077700410000
F201808051213152021252629
B2018083212189N10131596WA007690077700309000
F20183802051213152021252629
B2018383212190N10131596WA007690077700310000
E201901STA
E201901ATS1014.0
LFLYA1 00776
B2019013212215N10131595WA007680077600410000
B2019063212254N10131595WA007730077900410000
B2019113212292N10131596WA007840078800510000
B2019163212331N10131595WA007960080000410000
B2019213212373N10131602WA008040081200510000
B2019263212415N10131617WA008110082300510000
B2019313212459N10131635WA008180083200310000
B2019363212503N10131643WA008280084300410000
B2019413212549N10131646WA008400085400510000
B2019463212592N10131660WA008560086700410000
B2019513212632N10131678WA008630087900410000
B2019563212671N10131691WA008740089100410000
B2020013212712N10131704WA008850090500510000
B2020063212755N10131717WA008920091500510000
B2020113212794N10131739WA009020092200410000
B2020163212827N10131783WA009070092700510000
B2020213212853N10131829WA009050092900510000
B2020263212874N10131876WA009070093000510000
B2020313212885N10131934WA009120093300410000
B2020363212893N10131996WA009170093800510000
B2020413212917N10132055WA009230094400510000
B2020463212942N10132122WA009320095400510000
B2020513212958N10132191WA009300095600610000
B2020563212974N10132257WA009310095500510000
B2021013212983N10132325WA009320095600510000
B2021063212989N10132394WA009370096000610000
B2021113213001N10132460WA009420096800510000
B2021163213020N10132526WA009480097400510000
B2021213213035N10132593WA009580098200610000
B2021263213059N10132651WA009680099300510000
B2021313213084N10132701WA009850101000510000
B2021363213112N10132748WA010020103100510000
B2021413213142N10132790WA010230105500410000
B2021463213178N10132818WA010430108000410000
B2021513213214N10132845WA010590109800510000
B2021563213234N10132906WA010680110701110000
B2022013213226N10132971WA010610110900810000
B2022063213193N10133036WA010570109900810000
B2022113213140N10133064WA010610109901010000
B2022163213096N10133037WA010740111200910000
B2022213213077N10132995WA010880113000710000
B2022263213072N10132949WA011070114900510000
B2022313213081N10132907WA011310117200510000
B2022363213093N10132867WA011540119700310000
B2022413213122N10132853WA011720122100510000
B2022463213155N10132887WA011800123500910000
B2022513213166N10132959WA011850123200410000
B2022563213136N10133035WA012020123701010000
B2023013213075N10133057WA012010124400910000
B2023063213030N10133035WA012110125300710000
B2023113213007N10132993WA012250127100710000
F202316020512131521252629
B2023163213010N10132955WA012460129700409000
F20232102051213152021252629
B2023213213035N10132938WA012640131900610000
B2023263213070N10132951WA012810133600410000
B2023313213095N10133004WA012900134600310000
B2023363213076N10133073WA012920134900710000
B2023413213028N10133111WA013100136200810000
B2023463212987N10133091WA013320138800810000
B2023513212970N10133052WA013520141300610000
B2023563212961N10133029WA013610143100510000
B2024013212944N10133001WA013620143300510000
B2024063212938N10132971WA013660143400410000
B2024113212923N10132940WA013740143700810000
B2024163212880N10132933WA013750144000710000
B2024213212841N10132969WA013740144200810000
B2024263212830N10133024WA013730144200710000
B2024313212851N10133062WA013650143700510000
B2024363212878N10133070WA013590142900510000
B2024413212886N10133045WA013590142700810000
B2024463212869N10133017WA013670142900610000
B2024513212830N10133009WA013610142900710000
B2024563212781N10133033WA013590142700710000
B2024573212775N10133044WA013570142600610000
B2024583212770N10133056WA013560142600610000
E202459TPC
B2024593212766N10133067WA013570142400710000
B2025003212762N10133079WA013580142300610000
B2025013212759N10133091WA013570142100610000
B2025023212757N10133104WA013560142100510000
B2025033212756N10133116WA013540142000710000
B2025043212757N10133127WA013550142000710000
B2025063212765N10133145WA013490141800710000
B2025113212793N10133153WA013440141100610000
B2025163212806N10133132WA013460141100510000
B2025213212794N10133108WA013450141200510000
B2025263212769N10133085WA013400141000410000
B2025313212736N10133074WA013370140500410000
B2025363212701N10133084WA013330139900510000
B2025413212666N10133115WA013240138900510000
B2025463212634N10133156WA013170138000410000
B2025513212608N10133200WA013080137100610000
B2025563212572N10133236WA012950135700510000
B2026013212532N10133246WA012890134800410000
B2026063212501N10133239WA012770133600410000
B2026113212474N10133220WA012630132400510000
B2026163212470N10133192WA012560131500410000
B2026213212472N10133165WA012490130700510000
B2026263212472N10133146WA012430130100410000
B2026313212469N10133121WA012310129300410000
B2026363212465N10133097WA012250128300410000
B2026413212453N10133077WA012170127300410000
B2026463212426N10133072WA012090126400410000
B2026513212397N10133089WA012010125400410000
B2026563212364N10133122WA011930124400310000
B2027013212332N10133153WA011960124000510000
B2027063212296N10133198WA011980123700610000
B2027113212280N10133254WA012040124300810000
B2027163212306N10133297WA012100125300810000
B2027213212331N10133282WA012200126800610000
B2027263212325N10133261WA012290128000710000
B2027313212302N10133251WA012340129200410000
B2027363212265N10133247WA012390129800510000
B2027413212230N10133241WA012480130300610000
B2027463212198N10133256WA012540130900510000
B2027513212172N10133296WA012530131000510000
B2027563212171N10133354WA012490130700610000
B2028013212206N10133385WA012510130600910000
B2028063212234N10133373WA012620131800510000
B2028113212242N10133345WA012730133200710000
B2028163212218N10133333WA012870134500610000
B2028213212185N10133360WA012950135500510000
B2028263212176N10133418WA013030136400710000
B2028313212196N10133463WA013130137500510000
B2028363212226N10133486WA013190138400510000
B2028413212252N10133477WA013280139300510000
B2028463212251N10133454WA013330139800710000
B2028513212223N10133443WA013420140600910000
B2028563212186N10133462WA013560142100610000
B2029013212170N10133512WA013640143100510000
B2029063212175N10133565WA013740144100410000
B2029113212200N10133603WA013830145000510000
B2029163212230N10133603WA013880145700410000
B2029213212238N10133575WA014000146800610000
B2029263212217N10133553WA014060147500410000
B2029313212181N10133555WA014170148400510000
B2029363212149N10133598WA014260149100810000
B2029413212158N10133652WA014320150400710000
B2029463212198N10133667WA014420151400910000
B2029513212213N10133638WA014520152500810000
B2029563212196N10133612WA014610153500610000
B2030013212164N10133606WA014730154600710000
B2030063212126N10133621WA014840155600410000
B2030113212098N10133659WA014980157200610000
B2030163212110N10133710WA015060158400710000
F203021020513152021252629
B2030213212141N10133721WA015190159700609000
B2030263212158N10133698WA015300160900809000
B2030313212135N10133678WA015450162200709000
B2030363212099N10133695WA015480163200809000
B2030413212074N10133736WA015550163900709000
B2030463212076N10133792WA015590164300709000
B2030513212104N10133831WA015730165300809000
B2030563212133N10133828WA015870167000809000
B2031013212134N10133801WA016030168600709000
B2031063212107N10133789WA016160170100509000
B2031113212073N10133811WA016220171201009000
B2031163212062N10133864WA016280171800809000
B2031213212083N10133906WA016420172600909000
B2031263212113N10133900WA016550173401009000
B2031313212117N10133874WA016750175100909000
B2031363212088N10133867WA016770176400709000
B2031413212048N10133888WA016860177600709000
B2031463212022N10133937WA016990179200509000
B2031513212028N10133992WA017130180800609000
B2031563212059N10134018WA017290182600809000
B2032013212086N10134006WA017430184100609000
B2032063212081N10133977WA017600185501009000
B2032113212044N10133978WA017770187400809000
B2032163212014N10134026WA017940189600609000
B2032213212025N10134075WA018100191700709000
B2032263212059N10134094WA018280193500609000
B2032313212081N10134075WA018390195300909000
B2032363212064N10134045WA018610197200809000
B2032413212030N10134045WA018730198700809000
B2032463211990N10134074WA018790199400509000
B2032513211970N10134131WA019000200500709000
B2032563211988N10134182WA019170202401009000
B2033013212017N10134186WA019380204801109000
B2033063212021N10134165WA019560207100609000
B2033113211989N10134150WA019680208700809000
B2033163211946N10134169WA019810210200609000
B2033213211927N10134218WA020010212300809000
B2033263211955N10134264WA020140213900909000
B2033313211986N10134266WA020400216400709000
B2033363211994N10134242WA020550218600709000
B2033413211969N10134226WA020680220100709000
B2033463211929N10134254WA020770220400809000
B2033513211918N10134311WA020960221501009000
B2033563211948N10134367WA021130223500809000
B2034013211980N10134388WA021350226300509000
B2034063212006N10134388WA021520228800509000
B2034113212021N10134362WA021590230500909000
B2034163211996N10134345WA021690231100909000
B2034213211955N10134370WA021800231800909000
B2034263211946N10134431WA021970233401009000
B2034313211974N10134478WA022090234900809000
B2034363212007N10134484WA022230236400609000
B2034413212009N10134461WA022300237700909000
B2034463211977N10134455WA022390238500709000
B2034513211940N10134491WA022520239600909000
B2034563211929N10134551WA022700241100909000
B2035013211951N10134592WA022780242300809000
B2035063211981N10134590WA022890243300709000
B2035113211980N10134565WA022950244200809000
B2035163211952N10134549WA023090245000709000
B2035213211914N10134553WA023250246900609000
B2035263211876N10134585WA023420248800709000
B2035313211862N10134641WA023560250700809000
B2035363211877N10134691WA023630252000809000
B2035413211908N10134724WA023740252900709000
B2035463211941N10134727WA023780253300509000
B2035513211948N10134704WA023870254000509000
B2035563211927N10134683WA024000254800709000
B2036013211890N10134692WA024070255800509000
B2036063211864N10134742WA024210257300709000
B2036113211864N10134801WA024250258400809000
B2036163211894N10134833WA024320258900809000
B2036213211920N10134813WA024280258600709000
B2036263211908N10134785WA024340258600809000
B2036313211874N10134772WA024430259500709000
B2036363211837N10134793WA024580260900709000
B2036413211814N10134846WA024700262700509000
B2036463211816N10134903WA024840263900509000
B2036513211845N10134934WA024820264500609000
B2036563211861N10134912WA024780264300809000
B2037013211844N10134886WA024860264600609000
B2037063211812N10134885WA025010265600709000
B2037113211779N10134923WA025070266300609000
B2037163211768N10134978WA025080266800609000
B2037213211787N10135017WA025090267300809000
B2037263211817N10135020WA025060267100609000
B2037313211834N10134989WA025010266500909000
B2037363211809N10134969WA025090266700609000
B2037413211772N10134965WA025120267100609000
B2037463211737N10134994WA025090267100509000
B2037513211719N10135049WA025090267300709000
B2037563211728N10135100WA025070267100709000
B2038013211758N10135130WA024970266400509000
B2038063211788N10135124WA024930266400809000
B2038113211779N10135089WA024920266001009000
B2038163211742N10135082WA024850265400609000
B2038213211703N10135107WA024790264600609000
B2038263211674N10135149WA024750263900609000
B2038313211635N10135174WA024640262600609000
B2038363211594N10135180WA024600261900509000
B2038413211553N10135185WA024520260900509000
B2038463211514N10135192WA024410259900509000
B2038513211474N10135191WA024410259500409000
B2038563211439N10135217WA024360259200509000
B2039013211434N10135276WA024310258600809000
B2039063211466N10135298WA024270258300709000
B2039113211493N10135282WA024230257900409000
B2039163211495N10135251WA024180257600509000
B2039213211474N10135229WA024130257100509000
B2039263211439N10135210WA024010256300609000
B2039313211403N10135197WA024050256100609000
B2039363211362N10135215WA024090256200609000
B2039413211332N10135259WA024130256300809000
B2039463211330N10135302WA024250257101109000
B2039513211360N10135322WA024380258100809000
B2039563211388N10135297WA024360258800809000
B2040013211381N10135267WA024470259600609000
B2040063211345N10135253WA024500260300609000
B2040113211305N10135262WA024550261000409000
B2040163211272N10135302WA024690262100809000
B2040213211280N10135349WA024780263801309000
B2040263211315N10135359WA024890265100909000
B2040313211329N10135319WA024960266201009000
B2040363211305N10135291WA025010266800909000
B2040413211262N10135285WA025110267500909000
B2040463211235N10135320WA025240268800809000
B2040513211252N10135354WA025330269601009000
B2040563211270N10135331WA025470270901109000
B2041013211248N10135298WA025580272400909000
B2041063211209N10135292WA025660273600709000
B2041113211177N10135319WA025710274300409000
B2041163211177N10135359WA025730274500609000
B2041213211207N10135377WA025820274600909000
B2041263211220N10135343WA025890275400909000
B2041313211196N10135315WA025940276100609000
B2041363211156N10135315WA025990276600609000
B2041413211136N10135351WA025980277001009000
B2041463211162N10135374WA025990277001009000
B2041513211186N10135351WA026050277600909000
B2041563211175N10135321WA026080278000809000
B2042013211140N10135306WA026120278500709000
B2042063211101N10135317WA026120278500509000
B2042113211081N10135356WA026090278400509000
B2042163211095N10135391WA026020278000509000
B2042213211129N10135400WA026000277601109000
B2042263211138N10135361WA026060277701109000
B2042313211104N10135341WA026060277700909000
B2042363211064N10135336WA026050277500809000
B2042413211028N10135354WA025950276900609000
B2042463211037N10135391WA025870276301009000
B2042513211070N10135378WA025860276100909000
B2042563211077N10135337WA025830275700909000
B2043013211049N10135304WA025790275000509000
B2043063211011N10135307WA025650274200909000
B2043113211005N10135350WA025530272500809000
B2043163211036N10135375WA025440271300809000
B2043213211068N10135352WA025450271101009000
B2043263211068N10135315WA025430271000909000
B2043313211044N10135289WA025320270300509000
B2043363211010N10135280WA025210268800709000
B2043413210974N10135285WA025120267900509000
B2043463210936N10135294WA025100267400309000
B2043513210902N10135308WA025100267300409000
B2043563210875N10135341WA025050266900509000
B2044013210887N10135382WA024960266001209000
B2044063210918N10135378WA024980266000909000
B2044113210936N10135347WA025010266300709000
B2044163210923N10135302WA024940266000909000
B2044213210879N10135278WA024950265900809000
B2044263210841N10135289WA024970266001009000
B2044313210804N10135310WA024910265600709000
B2044363210796N10135351WA024800264600609000
B2044413210820N10135381WA024810264400709000
B2044463210849N10135370WA024810264300509000
B2044513210854N10135333WA024860264500909000
B2044563210822N10135302WA024870264700809000
B2045013210781N10135314WA024890264700509000
B2045063210766N10135353WA024790263900509000
B2045113210786N10135383WA024780263700709000
B2045163210813N10135368WA024820264100809000
B2045213210801N10135322WA024810264400909000
B2045263210768N10135297WA024820264600909000
B2045313210743N10135326WA024700264100809000
B2045363210763N10135357WA024610263000909000
B2045413210782N10135336WA024580262501009000
B2045463210771N10135296WA024560262000709000
B2045513210736N10135267WA024450260700709000
B2045563210699N10135260WA024350259200509000
B2046013210681N10135294WA024220257600909000
B2046063210714N10135307WA024100256201009000
B2046113210714N10135261WA023920254801209000
B2046163210681N10135223WA023810253400709000
B2046213210645N10135201WA023790252800609000
B2046263210610N10135218WA023760252300909000
B2046313210618N10135253WA023630251301009000
B2046363210651N10135257WA023560250500609000
B2046413210669N10135223WA023490250100809000
B2046463210647N10135187WA023440249800609000
B2046513210610N10135178WA023340248800609000
B2046563210572N10135187WA023230247700409000
B2047013210536N10135192WA023120246300509000
B2047063210497N10135178WA023020245100409000
B2047113210465N10135163WA022910244000609000
B2047163210434N10135150WA022720241800409000
B2047213210403N10135139WA022520239600509000
B2047263210371N10135137WA022330237500509000
B2047313210344N10135148WA022150235400309000
B2047363210316N10135174WA021960233300509000
B2047413210295N10135210WA021790231400409000
B2047463210262N10135227WA021630229600409000
B2047513210230N10135227WA021550228900609000
B2047563210199N10135238WA021400227500509000
B2048013210168N10135252WA021300226400609000
B2048063210132N10135262WA021210225200509000
B2048113210094N10135268WA021120224200409000
B2048163210056N10135268WA021100223900409000
B2048213210021N10135259WA021050223500509000
B2048263209989N10135246WA020900222700509000
B2048313209951N10135235WA020670220300609000
B2048363209914N10135234WA020520218300409000
B2048413209880N10135221WA020320216000509000
B2048463209858N10135191WA020140213600509000
B2048513209835N10135174WA019970211500509000
B2048563209802N10135171WA019810209700609000
B2049013209767N10135172WA019660208100509000
B2049063209736N10135170WA019510206300509000
B2049113209705N10135168WA019370204700409000
B2049163209676N10135170WA019180202800509000
B2049213209643N10135165WA019010201000509000
B2049263209605N10135170WA018830199300609000
B2049313209571N10135195WA018720198000409000
B2049363209537N10135208WA018580196800409000
B2049413209506N10135197WA018450195300609000
B2049463209478N10135192WA018330194000409000
B2049513209457N10135172WA018250193100309000
B2049563209447N10135146WA018160192200509000
B2050013209437N10135117WA018050191000509000
B2050063209421N10135091WA017940189600409000
B2050113209396N10135073WA017810188200409000
B2050163209368N10135056WA017670186700309000
B2050213209347N10135032WA017480184900509000
B2050263209328N10135004WA017360183400409000
B2050313209304N10134982WA017260182300309000
B2050363209275N10134971WA017140181200509000
B2050413209243N10134962WA017020179900509000
B2050463209210N10134961WA016910178500509000
B2050513209175N10134962WA016770176900609000
B2050563209139N10134958WA016630175300409000
B2051013209104N10134959WA016510174000409000
B2051063209071N10134957WA016390172700409000
B2051113209046N10134937WA016260171200309000
B2051163209024N10134912WA016110169500509000
B2051213208995N10134895WA015970167900409000
B2051263208957N10134902WA015840166500709000
B2051313208919N10134929WA015680164700409000
B2051363208882N10134961WA015550163200309000
B2051413208845N10134991WA015400161700309000
B2051463208812N10135018WA015270160200409000
B2051513208777N10135047WA015080158300509000
B2051563208742N10135079WA014990157100409000
B2052013208710N10135099WA014940156300609000
B2052063208677N10135109WA014930156100709000
B2052113208656N10135159WA014900156000809000
B2052163208680N10135207WA014920156200609000
B2052213208711N10135208WA014880156201109000
B2052263208704N10135181WA014800155900809000
B2052313208667N10135188WA014750155401109000
B2052363208655N10135247WA014710155301209000
B2052413208687N10135271WA014670154700909000
B2052463208701N10135247WA014610154101009000
B2052513208677N10135231WA014530153100809000
B2052563208643N10135258WA014480152100809000
B2053013208647N10135303WA014440151700709000
B2053063208676N10135313WA014310150500609000
B2053113208674N10135283WA014210149600909000
B2053163208639N10135273WA014150148700909000
B2053213208597N10135286WA014080147900709000
B2053263208555N10135305WA014090147500509000
B2053313208524N10135348WA014100147400809000
B2053363208540N10135387WA014060147000909000
B2053413208557N10135363WA013980146500909000
B2053463208538N10135336WA013980146300809000
B2053513208497N10135333WA014030146500709000
B2053563208457N10135365WA014040146800609000
B2054013208463N10135407WA014020146901009000
B2054063208488N10135400WA013970146500809000
B2054113208485N10135370WA014050146700809000
B2054163208456N10135343WA014090146900709000
B2054213208414N10135356WA014230148100909000
B2054263208408N10135405WA014200148601209000
B2054313208431N10135399WA014180148700809000
B2054363208420N10135367WA014270148900909000
B2054413208379N10135365WA014410150100809000
B2054463208347N10135401WA014510151600709000
B2054513208356N10135435WA014540152201009000
B2054563208377N10135415WA014510152101109000
B2055013208343N10135403WA014580152401109000
B2055063208318N10135451WA014640153001209000
B2055113208332N10135488WA014720153900509000
B2055163208361N10135496WA014710154300909000
B2055213208355N10135463WA014690154201009000
B2055263208312N10135465WA014700154400709000
B2055313208275N10135496WA014810155000609000
B2055363208271N10135546WA014870155401009000
B2055413208302N10135550WA014800155400909000
B2055463208306N10135516WA014840155701009000
B2055513208281N10135488WA014880156100509000
B2055563208237N10135476WA015000156800909000
B2056013208201N10135512WA015090158100809000
B2056063208214N10135553WA015150159101109000
B2056113208228N10135536WA015240160101009000
B2056163208217N10135503WA015340161300809000
B2056213208181N10135498WA015390161900609000
B2056263208145N10135525WA015530163300609000
B2056313208133N10135571WA015570163801009000
B2056363208158N10135599WA015580164000809000
B2056413208172N10135581WA015690165000809000
B2056463208151N10135552WA015780165700709000
B2056513208112N10135575WA015780166500909000
B2056563208102N10135619WA015770166600809000
B2057013208127N10135647WA015790166500909000
B2057063208142N10135633WA015880166900809000
B2057113208117N10135603WA015930167300809000
B2057163208080N10135616WA015960167800909000
B2057213208075N10135662WA015930167700809000
B2057263208099N10135691WA015970167900509000
B2057313208125N10135693WA016020168600609000
B2057363208139N10135665WA016170169201209000
B2057413208104N10135649WA016100169300909000
B2057463208068N10135682WA016090169600809000
B2057513208075N10135722WA016160169900909000
B2057563208104N10135714WA016180170400709000
B2058013208098N10135687WA016220170800709000
B2058063208064N10135669WA016180170400409000
B2058113208026N10135666WA016150170200609000
B2058163208006N10135705WA016090169801009000
B2058213208019N10135742WA016060169300709000
B2058263208054N10135740WA015990168900809000
B2058313208063N10135710WA015970168301009000
B2058363208045N10135683WA015870167100509000
B2058413208013N10135670WA015720165600609000
B2058463207981N10135704WA015560163700609000
B2058513207985N10135751WA015520162900909000
B2058563208018N10135774WA015400162000909000
B2059013208041N10135760WA015330161000709000
B2059063208042N10135735WA015180159600609000
B2059113208025N10135711WA015020157800809000
B2059163207982N10135714WA014870156100709000
B2059213207938N10135731WA014730154600509000
B2059263207900N10135756WA014610153300409000
B2059313207867N10135788WA014490152000509000
B2059363207837N10135820WA014380150600509000
B2059413207808N10135850WA014340149900509000
B2059463207777N10135880WA014300149700609000
B2059513207741N10135899WA014170148600809000
B2059563207697N10135903WA014020147000409000
B2100013207655N10135909WA013980146300409000
B2100063207617N10135936WA013860145300609000
B2100113207585N10135969WA013740144200409000
B2100163207554N10136008WA013590142600609000
B2100213207523N10136045WA013400140400509000
B2100263207480N10136071WA013280138500609000
B2100313207434N10136084WA013150136900709000
B2100363207394N10136102WA013040135800609000
B2100413207358N10136124WA013000135300409000
B2100463207325N10136156WA012890134400509000
B2100513207285N10136174WA012780133400509000
B2100563207245N10136172WA012690132500509000
B2101013207207N10136171WA012570131300609000
B2101063207167N10136169WA012480130200509000
B2101113207126N10136182WA012380129100409000
B2101163207087N10136208WA012320128300509000
B2101213207060N10136230WA012220127000609000
B2101263207022N10136244WA012020124700609000
B2101313206984N10136253WA011930123600409000
B2101363206945N10136274WA011860122800409000
B2101413206914N10136297WA011810122500409000
B2101463206876N10136319WA011650120900609000
B2101513206837N10136334WA011620120000509000
B2101563206809N10136362WA011420118700509000
B2102013206773N10136388WA011220116200609000
B2102063206737N10136404WA011010113700609000
B2102113206707N10136431WA010830111500509000
B2102163206684N10136468WA010660109700509000
B2102213206661N10136512WA010570108400409000
B2102263206645N10136561WA010500107400409000
B2102313206622N10136606WA010530107500509000
B2102363206589N10136620WA010580108700709000
B2102413206565N10136594WA010580108900609000
B2102463206575N10136565WA010570109000709000
B2102513206603N10136574WA010600109200609000
B2102563206622N10136610WA010620109700509000
B2103013206628N10136657WA010600109700509000
B2103063206623N10136702WA010600109600409000
B2103113206605N10136754WA010600109600409000
B2103163206568N10136788WA010650110000409000
B2103213206520N10136799WA010750110900609000
B2103263206481N10136792WA010810111600409000
B2103313206464N10136756WA010900112500709000
B2103363206483N10136738WA010980113500909000
B2103413206503N10136770WA011050114700909000
B2103463206488N10136822WA011130115600409000
B2103513206445N10136845WA011220116600709000
B2103563206406N10136828WA011330117700509000
B2104013206396N10136791WA011410118300709000
B2104063206417N10136776WA011470118900409000
B2104113206435N10136803WA011560119700609000
B2104163206416N10136850WA011620120600509000
B2104213206379N10136879WA011710121600409000
B2104263206335N10136879WA011770122500409000
B2104313206311N10136847WA011890123400609000
B2104363206326N10136822WA011940123900709000
B2104413206348N10136838WA012010124900609000
B2104463206356N10136878WA012090125600809000
B2104513206342N10136925WA012140126400409000
B2104563206304N10136952WA012160126400709000
B2105013206267N10136954WA012230127200609000
B2105063206238N10136922WA012240127600709000
B2105113206241N10136884WA012300127900409000
B2105163206265N10136874WA012300128000609000
B2105213206288N10136897WA012350128200509000
B2105263206303N10136935WA012300128300509000
B2105313206299N10136987WA012270128300509000
B2105363206271N10137024WA012320128500809000
B2105413206234N10137036WA012380129000509000
B2105463206203N10137017WA012450129500409000
B2105513206191N10136978WA012450129800809000
B2105563206208N10136956WA012490130100709000
B2106013206237N10136965WA012460130000509000
B2106063206259N10137003WA012370129500509000
B2106113206252N10137058WA012280128600609000
B2106163206215N10137095WA012300128100409000
B2106213206173N10137109WA012310128000609000
B2106263206133N10137091WA012330128300409000
B2106313206115N10137055WA012360128600709000
B2106363206121N10137023WA012470129500809000
B2106413206142N10137018WA012530130200909000
B2106463206166N10137042WA012580131000509000
B2106513206179N10137086WA012580131000709000
B2106563206173N10137137WA012530130700509000
B2107013206148N10137178WA012540130600309000
B2107063206113N10137201WA012580130900509000
B2107113206079N10137205WA012740132100509000
B2107163206050N10137186WA012760133200509000
B2107213206046N10137147WA012790133600809000
B2107263206065N10137124WA012860133900709000
B2107313206093N10137134WA012840134000509000
B2107363206103N10137180WA012810133500709000
B2107413206096N10137226WA012770133300409000
B2107463206075N10137268WA012770133300409000
B2107513206041N10137298WA012770133200309000
B2107563205997N10137306WA012820133600609000
B2108013205960N10137290WA012870134100409000
B2108063205952N10137257WA012950134900709000
B2108113205971N10137237WA013030135700409000
B2108163206002N10137243WA013090136500409000
B2108213206021N10137281WA013190137700409000
B2108263206019N10137327WA013220138300509000
B2108313205992N10137370WA013180138000509000
B2108363205951N10137388WA013180137700609000
B2108413205914N10137376WA013220137800409000
B2108463205901N10137343WA013250138200509000
B2108513205911N10137316WA013320138800509000
B2108563205938N10137310WA013400139500409000
B2109013205966N10137325WA013410139800409000
B2109063205986N10137362WA013380139700309000
B2109113205994N10137413WA013350139500609000
B2109163205988N10137459WA013310139200509000
B2109213205962N10137500WA013250138800609000
B2109263205924N10137529WA013190137900609000
F21093102051315162021252629
B2109313205879N10137550WA013140137100510000
B2109363205841N10137569WA013130137000510000
B2109413205805N10137561WA013110136900610000
B2109463205789N10137531WA013080136500310000
B2109513205797N10137502WA013050136300410000
B2109563205827N10137504WA013050136300310000
B2110013205851N10137532WA013050136300310000
B2110063205857N10137582WA012990136000310000
B2110113205837N10137626WA012950135800510000
B2110163205805N10137666WA012910135100610000
B2110213205769N10137702WA012810134000410000
B2110263205726N10137727WA012750133000610000
B2110313205687N10137748WA012700132400410000
B2110363205648N10137773WA012670132000310000
B2110413205617N10137806WA012690132000410000
B2110463205588N10137842WA012690132100310000
B2110513205550N10137835WA012700132200610000
B2110563205542N10137800WA012720132400810000
B2111013205560N10137781WA012740132700510000
B2111063205588N10137791WA012780133000310000
B2111113205608N10137828WA012810133300310000
B2111163205605N10137872WA012830133500410000
B2111213205581N10137907WA012810133500610000
B2111263205542N10137922WA012790133300410000
B2111313205505N10137929WA012800133300410000
B2111363205467N10137926WA012790133200210000
B2111413205438N10137900WA012830133400510000
B2111463205424N10137868WA012910134400410000
B2111513205426N10137834WA013040135700310000
B2111563205446N10137810WA013150137100410000
B2112013205475N10137802WA013290138600310000
B2112063205504N10137816WA013380139800410000
B2112113205522N10137848WA013420140500410000
B2112163205524N10137892WA013450141100410000
B2112213205495N10137928WA013450141000410000
B2112263205454N10137937WA013470141100510000
B2112313205417N10137924WA013500141400310000
B2112363205391N10137893WA013600142200510000
B2112413205389N10137858WA013710143400410000
B2112463205404N10137835WA013850144800310000
B2112513205427N10137832WA013900145700310000
B2112563205448N10137852WA013940146000410000
B2113013205458N10137888WA013940146100610000
B2113063205453N10137933WA013940146100410000
B2113113205428N10137970WA013970146300410000
B2113163205392N10137995WA013990146600310000
B2113213205354N10137990WA014080147600410000
B2113263205331N10137963WA014240149200410000
B2113313205326N10137929WA014330150400410000
B2113363205339N10137907WA014360150800310000
B2113413205362N10137907WA014390151300310000
B2113463205381N10137937WA014360150900410000
B2113513205381N10137981WA014370151000410000
B2113563205360N10138021WA014390151000310000
B2114013205327N10138052WA014400151100310000
B2114063205287N10138064WA014480151700510000
B2114113205251N10138051WA014620153300410000
B2114163205232N10138029WA014740154800410000
B2114213205223N10137996WA014840155900810000
B2114263205218N10137963WA014900156300510000
B2114313205241N10137948WA014950156900410000
B2114363205263N10137969WA014930157000410000
B2114413205266N10138015WA014960157200610000
B2114463205248N10138061WA014920157100410000
B2114513205209N10138096WA014970157500410000
B2114563205172N10138115WA015130159100510000
B2115013205135N10138106WA015200159900510000
B2115063205130N10138071WA015270160400710000
B2115113205150N10138056WA015380161100810000
B2115163205174N10138066WA015480162400410000
B2115213205193N10138097WA015470162600410000
B2115263205194N10138146WA015460162600410000
B2115313205179N10138191WA015520163000410000
B2115363205141N10138224WA015650164400310000
B2115413205103N10138225WA015710165300410000
B2115463205084N10138193WA015820166100810000
B2115513205092N10138162WA015910167200310000
B2115563205115N10138150WA015990168500610000
B2116013205140N10138171WA015980168700410000
B2116063205145N10138219WA015940168500710000
B2116113205125N10138274WA016010168500710000
B2116163205092N10138308WA016140169400410000
B2116213205052N10138311WA016230170400410000
B2116263205032N10138284WA016290171300610000
B2116313205039N10138253WA016340171800410000
B2116363205061N10138246WA016460172900510000
B2116413205087N10138273WA016490173600410000
B2116463205085N10138325WA016480174100410000
B2116513205064N10138378WA016550174600410000
B2116563205032N10138418WA016640175300410000
B2117013204992N10138438WA016640175400410000
B2117063204954N10138437WA016720176200710000
B2117113204926N10138416WA016710176100610000
B2117163204933N10138386WA016850177100510000
B2117213204957N10138373WA016950178500610000
B2117263204982N10138365WA016990179400510000
B2117313205009N10138374WA017040180000310000
B2117363205032N10138406WA017070180300410000
B2117413205040N10138455WA017090180500510000
B2117463205037N10138507WA017150180900410000
B2117513205021N10138554WA017150181000710000
B2117563204991N10138593WA017080180500510000
B2118013204946N10138604WA016990179200410000
B2118063204912N10138586WA016970178900710000
B2118113204892N10138558WA016950178600510000
B2118163204892N10138527WA016960178600410000
B2118213204914N10138506WA016960178600310000
B2118263204938N10138493WA017000178900410000
B2118313204969N10138505WA017010179100510000
B2118363204982N10138548WA017030179400310000
B2118413204977N10138598WA017020179600510000
B2118463204957N10138644WA017040179800610000
B2118513204929N10138689WA017010180000410000
B2118563204900N10138732WA016970179600310000
B2119013204875N10138777WA016860178400410000
B2119063204857N10138826WA016780177200410000
B2119113204834N10138874WA016660176000510000
B2119163204804N10138912WA016590175000510000
B2119213204770N10138949WA016490173900310000
B2119263204734N10138990WA016350172500410000
B2119313204699N10139024WA016220170800310000
B2119363204667N10139058WA016090169300510000
B2119413204631N10139098WA016040168400710000
B2119463204595N10139129WA016070168700310000
B2119513204550N10139133WA016120169400510000
B2119563204515N10139109WA016200170200410000
B2120013204491N10139077WA016270171000610000
B2120063204477N10139042WA016400172100610000
F212011020513151621252629
B2120113204487N10139014WA016460173200609000
F21201602051315162021252629
B2120163204512N10139012WA016500173900610000
B2120213204539N10139035WA016430173500410000
B2120263204558N10139071WA016330172600610000
B2120313204562N10139118WA016280171700710000
B2120363204550N10139174WA016320171700410000
B2120413204536N10139226WA016350172100610000
B2120463204507N10139266WA016450173000510000
B2120513204465N10139275WA016550173800610000
B2120563204434N10139248WA016630174800510000
B2121013204430N10139218WA016690175400710000
B2121063204452N10139202WA016750176200610000
B2121113204483N10139216WA016820176900510000
B2121163204509N10139249WA016890177900510000
B2121213204528N10139290WA016920178400510000
B2121263204533N10139342WA016950178900710000
B2121313204522N10139392WA016950179000310000
B2121363204490N10139430WA016980179100310000
B2121413204446N10139434WA016920178800410000
B2121463204415N10139404WA016960178900510000
B2121513204406N10139371WA017020179500410000
B2121563204410N10139334WA017060179800410000
B2122013204428N10139316WA017120180400510000
B2122063204458N10139335WA017170180900610000
B2122113204472N10139380WA017140181100810000
B2122163204462N10139434WA017150181200410000
B2122213204437N10139476WA017140181100310000
B2122263204397N10139504WA017140181000510000
B2122313204350N10139511WA017130180700510000
B2122363204310N10139498WA017130180900410000
B2122413204292N10139463WA017210181500510000
B2122463204307N10139438WA017240182000610000
B2122513204335N10139441WA017320182800410000
B2122563204358N10139471WA017360183400310000
B2123013204361N10139518WA017350183600610000
B2123063204345N10139566WA017320183400310000
B2123113204311N10139602WA017360183600510000
B2123163204267N10139619WA017350183500510000
B2123213204225N10139625WA017330183300310000
B2123263204178N10139619WA017340183100710000
B2123313204136N10139645WA017310182800610000
B2123363204103N10139683WA017340182900410000
B2123413204070N10139727WA017320182900510000
B2123463204044N10139774WA017270182300510000
B2123513204033N10139819WA017180181500310000
B2123563204050N10139853WA017050180200710000
B2124013204074N10139854WA016930178600610000
B2124063204086N10139830WA016890178100910000
B2124113204070N10139796WA016830177600610000
B2124163204040N10139772WA016840177500610000
B2124213203998N10139762WA016810177100410000
B2124263203956N10139762WA016750176600510000
B2124313203912N10139784WA016630175400510000
F212436051315162021252629
B2124363203864N10139808WA016490174000609000
B2124413203819N10139829WA016410173000309000
B2124463203777N10139858WA016330171900509000
B2124513203737N10139886WA016270171200509000
B2124563203694N10139901WA016170170200509000
B2125013203652N10139916WA016030168900309000
B2125063203611N10139942WA015850166800609000
B2125113203572N10139981WA015640164200609000
B2125163203541N10140026WA015490162300509000
B2125213203517N10140075WA015300160300409000
B2125263203501N10140125WA015190158900409000
B2125313203494N10140175WA015050157400509000
B2125363203489N10140220WA014940156200509000
B2125413203487N10140268WA014810154600409000
B2125463203500N10140310WA014720153600509000
B2125513203514N10140349WA014590152400709000
B2125563203522N10140395WA014460151100809000
B2126013203509N10140446WA014360149900509000
B2126063203495N10140493WA014290149100709000
B2126113203490N10140549WA014260148500809000
B2126163203505N10140591WA014390148901009000
B2126213203538N10140599WA014400149701009000
B2126263203562N10140577WA014410150100909000
B2126313203553N10140540WA014320149800809000
B2126363203514N10140532WA014230149100509000
B2126413203477N10140564WA014070147300409000
B2126463203451N10140606WA014140147500809000
B2126513203438N10140651WA014230148200709000
B2126563203452N10140697WA014260148800509000
B2127013203478N10140730WA014390150200609000
B2127063203512N10140737WA014520151700709000
B2127113203520N10140706WA014610153001009000
B2127163203492N10140679WA014680153600709000
B2127213203455N10140689WA014760154801009000
B2127263203432N10140736WA014870155701009000
B2127313203445N10140787WA014970156900909000
B2127363203472N10140813WA015140158800709000
B2127413203498N10140806WA015230159800709000
B2127463203516N10140782WA015370161000709000
F2127510513151620212629
B2127513203503N10140748WA015460162001308000
B2127563203462N10140754WA015520162700908000
B2128013203432N10140794WA015590163501008000
B2128063203431N10140845WA015680164001508000
B2128113203459N10140869WA015810165101608000
B2128163203476N10140844WA015900165901108000
B2128213203452N10140815WA016020167301608000
B2128263203411N10140826WA016150168601208000
B2128313203386N10140876WA016190169501208000
B2128363203401N10140921WA016240170101408000
B2128413203427N10140916WA016410170901608000
B2128463203427N10140884WA016570172201408000
B2128513203396N10140870WA016690174001208000
B2128563203359N10140893WA016740175500908000
B2129013203345N10140942WA016770176301408000
B2129063203372N10140977WA016840176801308000
B2129113203398N10140966WA016950177601308000
B2129163203390N10140932WA017070178501108000
B2129213203355N10140912WA017170179801308000
B2129263203320N10140933WA017240181001408000
B2129313203308N10140986WA017310181901308000
B2129363203330N10141016WA017390182501208000
B2129413203346N10140993WA017460182901208000
B2129463203323N10140969WA017590183600808000
B2129513203287N10140971WA017620184400908000
B2129563203254N10141006WA017620185301008000
B2130013203252N10141063WA017610185401008000
B2130063203276N10141091WA017660185701308000
B2130113203293N10141075WA017750186201508000
B2130163203281N10141047WA017850186900908000
B2130213203251N10141028WA017890187601008000
B2130263203210N10141044WA017870188400908000
B2130313203177N10141078WA017910189000708000
B2130363203158N10141130WA017870188901008000
B2130413203180N10141170WA017860188601408000
B2130463203210N10141179WA017840188301108000
B2130513203223N10141151WA017880188101308000
B2130563203205N10141118WA017990188401208000
B2131013203162N10141104WA018050189101308000
B2131063203124N10141134WA017990189401008000
B2131113203106N10141187WA017950189400708000
B2131163203106N10141239WA017890188700908000
B2131213203125N10141276WA017810188000908000
B2131263203156N10141268WA017700187201408000
B2131313203156N10141240WA017720187001208000
B2131363203124N10141214WA017750187101108000
B2131413203080N10141202WA017800187201508000
B2131463203035N10141208WA017770187201308000
B2131513203002N10141243WA017720186600808000
B2131563203007N10141288WA017650185801208000
B2132013203035N10141301WA017570185201208000
B2132063203053N10141277WA017460184401308000
B2132113203050N10141244WA017530184301208000
B2132163203027N10141213WA017530184300908000
B2132213202993N10141190WA017530184300608000
B2132263202953N10141190WA017500184200708000
B2132313202913N10141208WA017460184000708000
B2132363202883N10141237WA017460183700708000
B2132413202859N10141276WA017330182700908000
B2132463202852N10141325WA017190181300808000
B2132513202866N10141365WA017080179800808000
B2132563202894N10141377WA017020178801008000
B2133013202912N10141355WA016920177901108000
B2133063202904N10141322WA016920177701008000
B2133113202877N10141296WA016890177700708000
B2133163202838N10141286WA016850177300908000
B2133213202799N10141293WA016770176600808000
B2133263202760N10141318WA016630175200908000
B2133313202741N10141358WA016510173701008000
B2133363202728N10141404WA016380172300808000
B2133413202724N10141450WA016260171000808000
B2133463202723N10141495WA016110169400708000
B2133513202718N10141540WA015980167800508000
B2133563202708N10141578WA015870166600708000
B2134013202696N10141621WA015680164800808000
B2134063202681N10141662WA015570163200608000
B2134113202678N10141709WA015420161600908000
B2134163202676N10141753WA015290160100808000
B2134213202676N10141797WA015120158300608000
B2134263202675N10141841WA014980156500808000
B2134313202672N10141887WA014850155000508000
B2134363202660N10141938WA014830154900708000
B2134413202647N10141981WA014850155100608000
B2134463202643N10142024WA014830154801008000
B2134513202670N10142055WA014720154100908000
B2134563202702N10142039WA014680153701408000
B2135013202702N10142005WA014710153601008000
B2135063202675N10141985WA014670153301208000
B2135113202641N10142004WA014640153001208000
B2135163202620N10142042WA014610152900708000
B2135213202610N10142087WA014580152300708000
B2135263202625N10142129WA014520151701008000
B2135313202661N10142132WA014470151101408000
B2135363202669N10142097WA014440150700908000
B2135413202641N10142068WA014430150601208000
B2135463202602N10142059WA014420150500708000
B2135513202565N10142078WA014420150200908000
B2135563202541N10142111WA014360150000708000
B2136013202543N10142158WA014310149601408000
B2136063202560N10142203WA014280149200908000
B2136113202593N10142229WA014190148901108000
B2136163202617N10142210WA014200148801608000
B2136213202600N10142177WA014190148600908000
B2136263202562N10142160WA014160148401008000
B2136313202524N10142166WA014140147900808000
B2136363202496N10142200WA014080147100808000
B2136413202484N10142245WA013990146301208000
B2136463202496N10142281WA014050145701208000
B2136513202526N10142288WA014050145901008000
B2136563202544N10142258WA013990146000908000
B2137013202531N10142228WA013980145800708000
B2137063202499N10142217WA013900145801008000
B2137113202465N10142240WA013820144801008000
B2137163202448N10142284WA013760143701008000
B2137213202436N10142333WA013740143100908000
B2137263202427N10142375WA013790143000908000
B2137313202450N10142394WA013760143101208000
B2137363202469N10142374WA013760143401408000
B2137413202458N10142338WA013750143201108000
B2137463202420N10142327WA013750143001108000
B2137513202386N10142352WA013760142901108000
B2137563202381N10142391WA013750142701208000
B2138013202397N10142422WA013720142601008000
B2138063202420N10142435WA013720142700508000
B2138113202447N10142456WA013700142700308000
B2138163202468N10142493WA013690142800608000
B2138213202478N10142542WA013650142500808000
B2138263202458N10142593WA013630142000808000
B2138313202422N10142628WA013610141800708000
B2138363202378N10142633WA013660142200908000
B2138413202351N10142606WA013680142800808000
B2138463202359N10142577WA013700142900708000
B2138513202389N10142581WA013740143200708000
B2138563202415N10142618WA013710143000608000
B2139013202428N10142667WA013670142700608000
B2139063202422N10142719WA013650142700708000
B2139113202391N10142765WA013640142500808000
B2139163202353N10142800WA013670142500908000
B2139213202307N10142800WA013760142901308000
B2139263202287N10142766WA013890143900508000
B2139313202300N10142733WA014120145601008000
B2139363202334N10142741WA014230148000908000
B2139413202361N10142769WA014290149300508000
B2139463202376N10142815WA014250149800908000
B2139513202362N10142865WA014320150200908000
B2139563202329N10142908WA014380150900808000
B2140013202285N10142925WA014490152000708000
B2140063202252N10142910WA014600152900908000
B2140113202246N10142875WA014690153500808000
F21401605131516212629
B2140163202265N10142853WA014840154500707000
F2140210513151620212629
B2140213202291N10142871WA014890155500608000
B2140263202300N10142915WA014930156100908000
B2140313202285N10142963WA014990156800908000
B2140363202246N10142993WA015110157601008000
B2140413202203N10142978WA015150158200808000
B2140463202190N10142941WA015200158700908000
B2140513202210N10142912WA015340159700708000
B2140563202242N10142926WA015410160900808000
B2141013202249N10142975WA015460161700708000
B2141063202222N10143019WA015530162500808000
B2141113202179N10143029WA015630163701008000
B2141163202156N10142996WA015690164300908000
B2141213202170N10142967WA015800165300608000
B2141263202199N10142961WA015900166300808000
B2141313202226N10142986WA015940167000608000
B2141363202232N10143038WA015980167800708000
B2141413202203N10143083WA016080168701008000
B2141463202158N10143099WA016220170501008000
B2141513202124N10143081WA016260171500808000
B2141563202132N10143048WA016310172100708000
B2142013202163N10143066WA016390172400908000
B2142063202172N10143114WA016450172800708000
B2142113202152N10143165WA016580173700808000
B2142163202111N10143199WA016680175000808000
B2142213202063N10143198WA016720175800808000
B2142263202038N10143164WA016830177000908000
B2142313202053N10143138WA016900178100608000
B2142363202082N10143144WA017020179000608000
B2142413202103N10143186WA017090179700708000
B2142463202099N10143239WA017220181200808000
B2142513202068N10143276WA017310182301308000
B2142563202025N10143278WA017420183801308000
B2143013201990N10143247WA017470184600608000
B2143063201993N10143215WA017570185200708000
B2143113202023N10143221WA017670186200608000
B2143163202045N10143260WA017770187400608000
B2143213202045N10143312WA017850188201108000
B2143263202015N10143352WA017920188901008000
B2143313201972N10143356WA018020189701008000
B2143363201932N10143338WA018100190600508000
B2143413201917N10143302WA018200191400808000
B2143463201938N10143283WA018290192200808000
B2143513201964N10143309WA018350193100708000
B2143563201967N10143355WA018450194300808000
B2144013201944N10143403WA018560195200908000
B2144063201911N10143428WA018660196800808000
B2144113201873N10143419WA018760198200808000
B2144163201858N10143385WA018800198800608000
F21442105131520212629
B2144213201870N10143356WA018950199801007000
F2144260513151620212629
B2144263201895N10143351WA019060200900508000
B2144313201924N10143378WA019120202000408000
B2144363201928N10143430WA019200202900808000
B2144413201910N10143474WA019270203700708000
B2144463201873N10143503WA019360204500708000
B2144513201834N10143500WA019450205600908000
B2144563201812N10143470WA019530206400908000
B2145013201823N10143439WA019580207200508000
B2145063201849N10143434WA019670207800508000
B2145113201877N10143461WA019740208800408000
B2145163201896N10143507WA019770209000508000
B2145213201895N10143560WA019810209500908000
B2145263201875N10143608WA019850209900708000
B2145313201842N10143640WA019870210300608000
B2145363201804N10143640WA019930210700908000
B2145413201776N10143619WA019990211200808000
B2145463201772N10143586WA020050211500408000
B2145513201795N10143566WA020120212100408000
B2145563201826N10143570WA020190213100408000
B2146013201854N10143592WA020230214300308000
B2146063201878N10143634WA020240214700408000
B2146113201886N10143686WA020230214700908000
B2146163201870N10143732WA020260214700808000
B2146213201837N10143759WA020240214500908000
B2146263201802N10143756WA020250214401008000
B2146313201773N10143740WA020240214400708000
B2146363201766N10143709WA020300214600808000
B2146413201776N10143680WA020310214700708000
B2146463201794N10143654WA020290214800408000
F21465105131520212629
B2146513201810N10143626WA020310214700407000
F2146560513151620212629
B2146563201835N10143612WA020340214900408000
B2147013201865N10143627WA020390215700408000
B2147063201892N10143659WA020380215800508000
B2147113201915N10143699WA020390215900608000
B2147163201930N10143742WA020300215600608000
B2147213201933N10143791WA020190214500608000
B2147263201917N10143841WA020040212600608000
B2147313201882N10143876WA019970211500908000
B2147363201843N10143907WA019920210700708000
B2147413201811N10143938WA019830210000708000
B2147463201782N10143968WA019760209300808000
B2147513201750N10144002WA019660208200508000
B2147563201716N10144035WA019550207000808000
B2148013201680N10144070WA019440205700708000
B2148063201642N10144102WA019300204100508000
B2148113201603N10144126WA019230202900608000
B2148163201562N10144143WA019150202000708000
B2148213201523N10144169WA019090201200708000
B2148263201490N10144206WA019020200400608000
B2148313201468N10144261WA018920199400608000
B2148363201450N10144318WA018830198500808000
B2148413201435N10144376WA018790197900808000
B2148463201426N10144434WA018740197400308000
B2148513201416N10144492WA018690197000408000
B2148563201404N10144546WA018630196400608000
B2149013201391N10144603WA018520195600708000
B2149063201379N10144653WA018460194900508000
B2149113201361N10144700WA018300193700808000
B2149163201337N10144742WA018200192400708000
B2149213201312N10144782WA018070190900708000
B2149263201297N10144828WA017910189200708000
B2149313201283N10144868WA017740187200508000
B2149363201259N10144910WA017620185400608000
B2149413201233N10144944WA017480183600508000
B2149463201199N10144984WA017300182000908000
B2149513201166N10145016WA017290182200908000
B2149563201125N10145019WA017160181200808000
B2150013201096N10144998WA017130180700508000
B2150063201095N10144956WA017020179600808000
B2150113201113N10144929WA016910178100908000
B2150163201143N10144921WA016760177000508000
B2150213201174N10144938WA016580174800408000
B2150263201188N10144978WA016420172900508000
B2150313201188N10145029WA016330171600508000
B2150363201168N10145080WA016270170600708000
B2150413201133N10145123WA016310170500908000
B2150463201093N10145136WA016200170400908000
B2150513201062N10145112WA016140169400708000
B2150563201033N10145093WA016020168300608000
B2151013201025N10145064WA015930167300908000
B2151063201055N10145049WA015840166300608000
B2151113201085N10145070WA015790165800508000
B2151163201097N10145109WA015710165300608000
B2151213201089N10145158WA015590163900908000
F21512613151620212629
B2151263201066N10145206WA015510162500707000
B2151313201040N10145254WA015400161300507000
B2151363201014N10145305WA015310160300607000
B2151413200983N10145354WA015230159200707000
B2151463200950N10145400WA015120158000807000
B2151493200929N10145430WA015040157300507000
B2151503200922N10145440WA015030157200707000
E215151TPC
B2151513200916N10145449WA015030157000807000
B2151523200910N10145457WA015020156800607000
B2151533200903N10145466WA015000156700907000
B2151543200896N10145473WA014980156500907000
B2151553200889N10145481WA014950156300607000
B2151563200881N10145487WA014920156200807000
B2152013200837N10145513WA014830155100807000
B2152063200795N10145527WA014780154400907000
B2152113200753N10145540WA014620153300807000
B2152163200701N10145543WA014480151900907000
B2152213200650N10145538WA014390150400607000
B2152263200620N10145514WA014460150100907000
B2152313200632N10145487WA014560150500807000
B2152363200661N10145507WA014700151500707000
B2152413200668N10145560WA014780153400907000
B2152463200646N10145604WA014740153900907000
B2152513200598N10145619WA014690153801107000
B2152563200560N10145595WA014610153500607000
B2153013200558N10145560WA014620153301207000
B2153063200587N10145555WA014630153300607000
B2153113200616N10145582WA014720153600707000
B2153163200638N10145614WA014720153800507000
B2153213200635N10145666WA014650153201507000
B2153263200602N10145709WA014540152100907000
B2153313200559N10145731WA014490151300907000
B2153363200509N10145741WA014380150300707000
B2153413200463N10145747WA014270149200807000
B2153463200417N10145750WA014170148101007000
B2153513200367N10145746WA014080147001107000
B2153563200313N10145746WA014050146400907000
F2154011013151620212629
B2154013200267N10145745WA014020146100908000
B2154063200236N10145721WA014000145900808000
B2154113200230N10145695WA014000145700808000
B2154163200258N10145698WA014010145600608000
B2154213200257N10145748WA013990145501008000
B2154263200223N10145794WA013910145200908000
B2154313200176N10145818WA013920144701008000
B2154363200127N10145827WA013900144601208000
B2154413200084N10145829WA013940144900808000
B2154463200049N10145810WA013950145200908000
B2154513200057N10145786WA013980145500608000
B2154563200084N10145798WA014060145900608000
B2155013200093N10145844WA014120146501208000
B2155063200072N10145899WA014060146701308000
B2155113200028N10145926WA014080147001008000
B2155163159984N10145919WA014100147200608000
B2155213159971N10145892WA014150147700808000
B2155263159990N10145878WA014190147900408000
B2155313200016N10145902WA014240148000408000
B2155363200013N10145955WA014190148200908000
B2155413159976N10146003WA014160148000908000
B2155463159927N10146015WA014150147901108000
B2155513159886N10145998WA014090147800808000
B2155563159872N10145967WA014130147700908000
B2156013159894N10145959WA014150147501008000
B2156063159909N10146001WA014100147300708000
B2156113159883N10146052WA014120147300908000
B2156163159833N10146065WA014110147100808000
B2156213159787N10146044WA014110147000608000
B2156263159751N10146016WA014140147200508000
B2156313159726N10145985WA014250147600808000
B2156363159724N10145953WA014360148400608000
B2156413159743N10145961WA014450149300608000
B2156463159752N10146009WA014530150500608000
B2156513159726N10146065WA014580151501208000
B2156563159673N10146081WA014640152501108000
B2157013159632N10146059WA014720153500608000
B2157063159637N10146029WA014780154300708000
B2157113159660N10146059WA014860155000808000
B2157163159640N10146116WA015020156600808000
B2157213159588N10146127WA015080157701308000
B2157263159573N10146094WA015170158501008000
B2157313159597N10146103WA015250159300808000
B2157363159588N10146160WA015390160501008000
B2157413159536N10146182WA015460161601408000
B2157463159485N10146163WA015520162600708000
B2157513159470N10146118WA015570163101008000
B2157563159498N10146107WA015720164100708000
B2158013159520N10146155WA015820165100608000
B2158063159491N10146209WA015930166600908000
B2158113159439N10146223WA016030167801308000
B2158163159408N10146190WA016130169100808000
B2158213159411N10146157WA016270170300608000
B2158263159447N10146164WA016310170900708000
B2158313159453N10146224WA016400171601208000
B2158363159416N10146272WA016510173301208000
B2158413159363N10146273WA016560174001108000
B2158463159336N10146241WA016650174700608000
B2158513159350N10146213WA016790175801108000
B2158563159379N10146236WA016840176600808000
B2159013159397N10146285WA016920177600508000
B2159063159385N10146346WA016980178101108000
B2159113159341N10146389WA016960178200908000
B2159163159290N10146389WA016990178500908000
B2159213159261N10146366WA016970178500708000
B2159263159274N10146339WA016970178400908000
B2159313159304N10146341WA016990178400808000
B2159363159321N10146375WA017100179000408000
B2159413159312N10146433WA017120179201008000
B2159463159274N10146480WA017100179700708000
B2159513159225N10146501WA017100179700908000
B2159563159179N10146486WA017060179400708000
B2200013159158N10146451WA017040179200808000
B2200063159156N10146420WA016990178900908000
B2200113159170N10146390WA016990178700608000
B2200163159196N10146396WA017050178700508000
B2200213159212N10146439WA017090179100608000
B2200263159185N10146490WA017040179201008000
B2200313159139N10146500WA017020178801008000
B2200363159095N10146484WA016950178200808000
B2200413159063N10146451WA016940177900708000
B2200463159053N10146415WA016960177900908000
B2200513159065N10146393WA016990178200608000
B2200563159090N10146400WA017040178400808000
B2201013159106N10146443WA017060178700608000
B2201063159090N10146495WA017070179001008000
B2201113159056N10146535WA017030178800808000
B2201163159014N10146559WA017030178900508000
B2201213158967N10146561WA016990178900608000
B2201263158928N10146544WA017000178800808000
B2201313158907N10146506WA016950178601008000
B2201363158910N10146477WA016930178300908000
B2201413158929N10146458WA016870177900508000
B2201463158955N10146470WA016830177400408000
B2201513158970N10146514WA016810176800508000
B2201563158957N10146565WA016760176001108000
B2202013158912N10146586WA016740176001208000
B2202063158866N10146571WA016700176000808000
B2202113158840N10146538WA016680175700608000
B2202163158831N10146503WA016640175100908000
B2202213158836N10146480WA016630174800808000
B2202263158849N10146470WA016700174900508000
B2202313158871N10146488WA016770175300608000
B2202363158881N10146533WA016840176000508000
B2202413158867N10146590WA016830176500908000
B2202463158844N10146633WA016780176401008000
B2202513158808N10146664WA016760176101608000
B2202563158761N10146663WA016670175601308000
B2203013158726N10146636WA016650175200408000
B2203063158711N10146602WA016600174900908000
B2203113158721N10146578WA016580174400508000
B2203163158744N10146576WA016570174200608000
B2203213158763N10146614WA016560174000508000
B2203263158755N10146661WA016530173600808000
B2203313158723N10146694WA016480173100708000
B2203363158679N10146692WA016410172501208000
B2203413158646N10146662WA016380172100608000
B2203463158626N10146624WA016360171800408000
B2203513158619N10146591WA016410171700808000
B2203563158632N10146576WA016350171700608000
B2204013158654N10146599WA016320171400508000
B2204063158652N10146651WA016230170701008000
B2204113158618N10146685WA016210170001008000
B2204163158567N10146671WA016120169400708000
B2204213158540N10146636WA016080168800908000
B2204263158530N10146604WA016060168200808000
B2204313158524N10146578WA015970167600808000
B2204363158535N10146557WA015870167100608000
B2204413158546N10146551WA015880166900608000
B2204463158557N10146580WA015840166600408000
B2204513158537N10146625WA015820166201008000
B2204563158499N10146655WA015740165300708000
B2205013158456N10146660WA015700164801208000
B2205063158411N10146653WA015600164000908000
B2205113158370N10146638WA015520163200708000
B2205163158344N10146606WA015530162800808000
B2205213158341N10146571WA015530162700708000
B2205263158368N10146570WA015580162700708000
B2205313158377N10146613WA015550162700508000
B2205363158343N10146658WA015510162401308000
B2205413158295N10146661WA015480162101108000
B2205463158265N10146632WA015490162100808000
B2205513158262N10146595WA015510162100708000
B2205563158276N10146578WA015570162400508000
B2206013158291N10146593WA015600162700508000
B2206063158285N10146633WA015620163100708000
B2206113158253N10146674WA015610163000808000
B2206163158208N10146697WA015610163201108000
B2206213158163N10146694WA015620163501008000
B2206263158134N10146665WA015660163900408000
B2206313158130N10146635WA015750164200908000
B2206363158143N10146621WA015740164300508000
B2206413158161N10146638WA015770164600508000
B2206463158163N10146676WA015760164800608000
B2206513158158N10146721WA015700164600508000
B2206563158146N10146771WA015730164400908000
B2207013158110N10146809WA015680164301108000
B2207063158057N10146807WA015590163900808000
B2207113158015N10146783WA015540163300808000
B2207163157983N10146745WA015500162300708000
B2207213157977N10146709WA015510162100908000
B2207263157975N10146674WA015530162000608000
B2207313157970N10146641WA015510162100608000
B2207363157987N10146627WA015480162000508000
B2207413158002N10146663WA015460161800508000
B2207463157994N10146707WA015450161700908000
B2207513157948N10146731WA015410161401108000
B2207563157905N10146702WA015400161301108000
B2208013157891N10146663WA015420161400908000
B2208063157896N10146638WA015410161500708000
B2208113157919N10146644WA015380161300708000
B2208163157923N10146688WA015360161001008000
B2208213157891N10146726WA015370160801308000
B2208263157839N10146727WA015410161600908000
B2208313157800N10146699WA015390161500808000
B2208363157795N10146663WA015400161301008000
B2208413157809N10146643WA015300160800608000
B2208463157833N10146661WA015310160500608000
B2208513157831N10146707WA015280159900508000
B2208563157802N10146751WA015300159601208000
B2209013157757N10146778WA015260159400808000
B2209063157708N10146777WA015250159500708000
B2209113157667N10146750WA015180159300908000
B2209163157634N10146717WA015150159100508000
B2209213157624N10146677WA015120158601008000
B2209263157639N10146668WA015120158500608000
B2209313157659N10146692WA015090158100508000
B2209363157666N10146729WA015000157500508000
B2209413157651N10146773WA014930156300708000
B2209463157617N10146810WA014890155401008000
B2209513157577N10146829WA014850155000408000
B2209563157535N10146824WA014810154700708000
B2210013157496N10146804WA014800154400708000
B2210063157462N10146772WA014790154200608000
B2210113157446N10146737WA014790154201008000
B2210163157454N10146713WA014760154100508000
B2210213157474N10146712WA014730153800808000
B2210263157487N10146739WA014700153800608000
B2210313157479N10146782WA014670153400908000
B2210363157446N10146820WA014610152600908000
B2210413157405N10146841WA014680152901408000
B2210463157360N10146833WA014580152900808000
B2210513157337N10146793WA014500152400908000
B2210563157347N10146759WA014490151900808000
B2211013157363N10146743WA014500151400608000
B2211063157384N10146745WA014420150800408000
B2211113157398N10146776WA014360150200308000
B2211163157379N10146821WA014310149400908000
B2211213157345N10146847WA014350149301208000
B2211263157304N10146830WA014280149301308000
B2211313157301N10146787WA014290149401108000
B2211363157318N10146765WA014180148700608000
B2211413157342N10146782WA014120148100608000
B2211463157337N10146829WA014010146601008000
B2211513157303N10146854WA014020146001208000
B2211563157260N10146852WA013980145501008000
B2212013157216N10146840WA013900145000808000
B2212063157183N10146814WA013850144500708000
B2212113157157N10146780WA013740143700508000
B2212163157125N10146745WA013590142100408000
B2212213157089N10146713WA013500140800308000
B2212263157060N10146684WA013470139800708000
B2212313157046N10146648WA013340139000908000
B2212363157061N10146626WA013260138100508000
B2212413157081N10146642WA013230137600508000
B2212463157075N10146687WA013200137000808000
B2212513157049N10146729WA013120136200808000
B2212563157019N10146766WA013030135500708000
B2213013156994N10146803WA012980134901108000
B2213063156969N10146844WA012890133800908000
B2213113156929N10146867WA012800132800708000
B2213163156886N10146856WA012690131700908000
B2213213156856N10146823WA012610130700508000
B2213263156834N10146787WA012540129900708000
B2213313156813N10146749WA012450129100408000
B2213363156793N10146714WA012380128400408000
B2213413156766N10146680WA012330127600808000
B2213463156729N10146659WA012310126901108000
B2213513156696N10146633WA012260126600608000
B2213563156709N10146597WA012360126700708000
B2214013156737N10146598WA012420127200908000
F22140610131516212629
B2214063156754N10146624WA012430127900407000
F2214111013151620212629
B2214113156743N10146666WA012390127901108000
B2214163156700N10146678WA012400127901008000
B2214213156663N10146654WA012430128300408000
B2214263156659N10146618WA012480128700608000
B2214313156680N10146603WA012560129300508000
B2214363156693N10146626WA012530129600508000
B2214413156685N10146669WA012480129101008000
B2214463156642N10146689WA012490129301208000
B2214513156600N10146678WA012530129900908000
B2214563156587N10146645WA012620130600808000
B2215013156604N10146631WA012670130900508000
B2215063156612N10146662WA012720131401008000
B2215113156588N10146702WA012750131701408000
B2215163156543N10146717WA012820132500808000
B2215213156507N10146701WA012890133600708000
B2215263156499N10146669WA013020134700708000
B2215313156518N10146652WA013150136000408000
B2215363156536N10146660WA013240137100408000
B2215413156548N10146689WA013230137600408000
B2215463156543N10146732WA013230137500808000
B2215513156513N10146771WA013200137201008000
B2215563156465N10146792WA013180136700708000
B2216013156419N10146786WA013270137300808000
B2216063156403N10146757WA013390138400908000
B2216113156425N10146746WA013490139400408000
B2216163156444N10146769WA013580140300408000
B2216213156434N10146813WA013620141101008000
B2216263156390N10146844WA013590140900908000
B2216313156340N10146847WA013710142200908000
B2216363156310N10146826WA013790143600808000
B2216413156313N10146797WA013910144900808000
B2216463156336N10146786WA014030146100408000
B2216513156355N10146808WA014130147000408000
B2216563156354N10146849WA014160147601008000
B2217013156326N10146895WA014190147800908000
B2217063156279N10146921WA014230148100808000
B2217113156229N10146923WA014330149001008000
B2217163156190N10146899WA014450149900608000
B2217213156182N10146866WA014510150500508000
B2217263156202N10146846WA014590151000408000
B2217313156226N10146868WA014690152000608000
B2217363156219N10146917WA014800153501008000
B2217413156183N10146957WA014880154901108000
B2217463156134N10146977WA015000156400908000
B2217513156094N10146967WA015120158200708000
B2217563156074N10146934WA015190159000808000
B2218013156073N10146898WA015220159300908000
B2218063156096N10146889WA015300159600408000
B2218113156108N10146923WA015380160301008000
B2218163156085N10146971WA015470161301208000
B2218213156040N10146996WA015570162601108000
B2218263155994N10146992WA015630163700908000
B2218313155967N10146963WA015730164700808000
B2218363155963N10146927WA015810165400808000
B2218413155980N10146905WA015810165600508000
B2218463156002N10146917WA015880165900508000
B2218513156010N10146955WA015960166600908000
B2218563156007N10147000WA015990167000708000
B2219013155980N10147046WA016020167201308000
B2219063155936N10147066WA016130168501208000
B2219113155896N10147055WA016210169700708000
B2219163155877N10147025WA016280170600808000
B2219213155884N10146995WA016320171100508000
B2219263155908N10146989WA016370171500308000
B2219313155925N10147012WA016400171700608000
F22193610131516202129
B2219363155924N10147058WA016430172000907000
B2219413155892N10147100WA016500172601107000
B2219463155846N10147123WA016610173600707000
B2219513155804N10147115WA016670174300907000
B2219563155781N10147081WA016730175000807000
B2220013155785N10147047WA016770175400807000
B2220063155805N10147033WA016800175900407000
B2220113155824N10147052WA016800176000607000
B2220163155813N10147098WA016910176401307000
B2220213155761N10147118WA016980177601307000
B2220263155716N10147106WA017030178300807000
B2220313155686N10147074WA017040178900707000
B2220363155681N10147039WA017030179000707000
B2220413155694N10147015WA017010178900407000
B2220463155714N10147015WA017010178800607000
B2220513155724N10147045WA016990178500707000
B2220563155716N10147087WA017020178500807000
B2221013155690N10147128WA017090178801007000
B2221063155642N10147147WA017120179400607000
B2221113155587N10147144WA017110179600807000
B2221163155542N10147127WA017110179900507000
B2221213155514N10147094WA017100179900607000
B2221263155510N10147061WA017020179601007000
B2221313155530N10147051WA016910178500507000
B2221363155545N10147073WA016840177300407000
B2221413155538N10147118WA016820176601307000
B2221463155494N10147148WA016820176600507000
B2221513155448N10147127WA016800176400907000
B2221563155433N10147094WA016720176000907000
B2222013155449N10147072WA016620175000507000
B2222063155469N10147086WA016450173300607000
B2222113155468N10147135WA016440172601207000
B2222163155430N10147171WA016410172101107000
B2222213155375N10147175WA016410172001007000
B2222263155326N10147162WA016370171600707000
B2222313155285N10147137WA016210170900407000
B2222363155253N10147107WA016140169700307000
B2222413155218N10147082WA016100168900507000
B2222463155189N10147055WA016030168200607000
B2222513155168N10147020WA015970167500607000
B2222563155153N10146985WA015830166500607000
B2223013155141N10146948WA015660164800607000
B2223063155129N10146912WA015570163200607000
B2223113155119N10146873WA015420161600507000
B2223163155112N10146837WA015270160000507000
B2223213155107N10146801WA015130158400407000
B2223263155099N10146765WA014940156500307000
B2223313155096N10146731WA014840154800607000
B2223363155091N10146697WA014680153300607000
B2223413155101N10146670WA014570151900607000
B2223463155106N10146638WA014450150700907000
B2223513155090N10146604WA014370149600807000
B2223563155072N10146572WA014250148500607000
B2224013155059N10146538WA014140147200607000
B2224063155050N10146503WA014060146200307000
B2224113155035N10146468WA013960145100507000
B2224163155008N10146442WA013850144200407000
B2224213154979N10146416WA013820143700507000
B2224263154951N10146391WA013720142900707000
B2224313154952N10146363WA013650142501007000
B2224363154974N10146343WA013530141201107000
B2224413154972N10146312WA013390140000707000
B2224463154943N10146287WA013320138900607000
B2224513154905N10146274WA013240137400707000
B2224563154859N10146270WA013130136000507000
B2225013154820N10146255WA013040134800507000
B2225063154800N10146227WA012920133800507000
B2225113154790N10146192WA012790132700607000
B2225163154782N10146164WA012780131900607000
B2225213154780N10146126WA012790131700707000
F222526101516202129
B2225263154780N10146095WA012830131900806000
F22253110131516202129
B2225313154810N10146078WA012910132300607000
B2225363154837N10146102WA012920132800507000
B2225413154847N10146158WA012910132900907000
B2225463154837N10146209WA012880132901007000
B2225513154802N10146249WA012800132601207000
B2225563154762N10146247WA012760132300607000
B2226013154733N10146228WA012840132600707000
B2226063154732N10146198WA012910132800807000
B2226113154764N10146185WA012920133100507000
B2226163154791N10146212WA013030134100507000
B2226213154795N10146268WA013070134801207000
B2226263154765N10146313WA012980134801007000
B2226313154723N10146328WA012900133801007000
B2226363154689N10146313WA012940133400907000
B2226413154667N10146288WA012990133500607000
B2226463154662N10146254WA013130133900407000
B2226513154693N10146249WA013120134500707000
B2226563154722N10146283WA013130135300807000
B2227013154719N10146340WA013180135901007000
B2227063154683N10146362WA013190136200807000
B2227113154651N10146346WA013260136900907000
B2227163154637N10146312WA013340137400507000
B2227213154650N10146282WA013410138300507000
B2227263154686N10146288WA013450138800507000
B2227313154702N10146343WA013460139301207000
B2227363154671N10146378WA013560140101407000
B2227413154636N10146364WA013630140900807000
B2227463154618N10146332WA013720141700907000
B2227513154622N10146298WA013730142000607000
B2227563154652N10146289WA013710141900707000
B2228013154683N10146325WA013740142201007000
B2228063154682N10146378WA013750142301207000
B2228113154644N10146403WA013870143801307000
B2228163154613N10146387WA013920144400607000
B2228213154605N10146357WA013930144600907000
B2228263154600N10146317WA013880144300707000
B2228313154596N10146273WA013910144200707000
B2228363154607N10146243WA013980144500907000
B2228413154637N10146233WA014100145300407000
B2228463154668N10146244WA014030145600707000
B2228513154682N10146294WA014010145701107000
B2228563154653N10146331WA013980145200807000
B2229013154618N10146318WA014060145400607000
B2229063154602N10146286WA014060145700807000
B2229113154627N10146272WA014060145900607000
B2229163154656N10146303WA014060146000607000
B2229213154657N10146357WA014100146301607000
B2229263154624N10146396WA014040146101407000
B2229313154592N10146387WA014150146500907000
B2229363154592N10146352WA014250147100907000
B2229413154616N10146331WA014250147601107000
B2229463154651N10146332WA014270147900807000
B2229513154672N10146377WA014260148101307000
B2229563154647N10146425WA014170147901007000
B2230013154604N10146404WA014140147500507000
B2230063154591N10146369WA014090147100807000
B2230113154599N10146335WA014120146900807000
B2230163154606N10146301WA014130147000707000
B2230213154610N10146265WA014190147300607000
B2230263154614N10146229WA014310148000507000
B2230313154612N10146190WA014340148500407000
B2230363154611N10146150WA014430149300607000
B2230413154611N10146113WA014520150500607000
B2230463154607N10146080WA014570151100707000
B2230473154604N10146073WA014570151200407000
B2230483154601N10146066WA014580151300407000
E223049TPC
B2230493154598N10146058WA014590151300407000
B2230503154594N10146050WA014590151500407000
B2230513154590N10146042WA014600151600707000
B2230523154587N10146035WA014610151700607000
B2230533154585N10146027WA014610151700607000
B2230543154583N10146019WA014620151800607000
B2230563154579N10146006WA014640152000507000
B2231013154573N10145975WA014650152300407000
B2231063154577N10145943WA014670152500507000
B2231113154582N10145918WA014740152900607000
B2231163154572N10145887WA014820153500707000
B2231213154551N10145860WA014830154000707000
B2231263154522N10145835WA014830154400607000
B2231313154491N10145811WA014920154900707000
B2231363154464N10145783WA014990155700707000
B2231413154446N10145755WA015030156300607000
B2231463154429N10145727WA015020156600307000
B2231513154408N10145700WA015050156800507000
B2231563154390N10145665WA015100157000407000
B2232013154384N10145625WA015100157100707000
B2232063154374N10145594WA015070157200707000
B2232113154360N10145558WA014910156200707000
B2232163154348N10145526WA014830155300507000
B2232213154335N10145491WA014730154100407000
B2232263154321N10145456WA014620152800507000
B2232313154299N10145421WA014510151600307000
B2232363154272N10145392WA014350150000607000
B2232413154252N10145358WA014210148300607000
B2232463154237N10145323WA014080146700507000
B2232513154225N10145288WA013940145200507000
B2232563154211N10145254WA013770143400507000
B2233013154197N10145217WA013580141400307000
B2233063154192N10145178WA013430139500307000
B2233113154194N10145142WA013320137800807000
B2233163154195N10145107WA013240136600907000
B2233213154175N10145070WA013200136300907000
B2233263154143N10145049WA013200136100607000
B2233313154103N10145033WA013180135900707000
B2233363154066N10145016WA013100135700807000
B2233413154040N10144992WA013070135300307000
B2233463154025N10144960WA012970134700307000
B2233513154022N10144928WA012950134400607000
B2233563154040N10144910WA012920134000507000
B2234013154062N10144906WA012780133300607000
B2234063154083N10144899WA012710132200807000
B2234113154092N10144874WA012650131500607000
B2234163154087N10144840WA012500130300807000
B2234213154074N10144804WA012290128600407000
B2234263154065N10144765WA012200126800707000
B2234313154054N10144729WA012120125500607000
B2234363154033N10144703WA012070124600607000
B2234413154012N10144676WA011990123700607000
B2234463153998N10144650WA011910122700507000
B2234513153985N10144625WA011790121700407000
B2234563153969N10144598WA011690120600307000
B2235013153988N10144584WA011570119100607000
B2235063154018N10144615WA011510118000707000
B2235113154029N10144668WA011450117301107000
B2235163154039N10144719WA011360116501407000
B2235213154045N10144771WA011210115401007000
B2235263154053N10144823WA011050113700907000
B2235313154065N10144868WA010880111700807000
B2235363154071N10144919WA010640109100707000
B2235413154051N10144971WA010460106801407000
B2235463153998N10144984WA010260104401107000
B2235513153955N10144963WA010080102300607000
B2235563153948N10144925WA009890100300807000
B2236013153947N10144887WA009660097800907000
B2236063153940N10144850WA009470095800807000
B2236113153934N10144814WA009370094200807000
B2236163153926N10144781WA009220093000607000
B2236213153938N10144755WA009160091800407000
B2236263153961N10144778WA009120091100807000
B2236313153965N10144822WA009020090501007000
B2236363153972N10144872WA008880089100907000
B2236413153984N10144916WA008720087301007000
B2236463154012N10144919WA008540085401107000
B2236513154003N10144873WA008350083601007000
B2236563153984N10144834WA008260081900707000
B2237013154002N10144810WA008130080200607000
B2237063154026N10144800WA008070079300507000
B2237113154044N10144794WA007970078500507000
B2237163154062N10144790WA007940078200507000
B2237213154064N10144789WA007930078301107000
B2237263154064N10144789WA007940078300707000
B2237313154064N10144789WA007940078300807000
B2237363154064N10144789WA007940078300807000
B2237413154064N10144789WA007940078300807000
B2237463154064N10144789WA007940078300807000
B2237513154064N10144789WA007940078300807000
B2237563154064N10144789WA007940078300807000
B2238013154064N10144789WA007940078300807000
B2238063154064N10144789WA007940078300807000
B2238113154063N10144789WA007940078300807000
B2238163154063N10144789WA007940078300807000
G2FF670CFF9B66616406A43A8D3B23F46BDFEAC5677628EDBDDEAFBF544AC7F7F
