AFLY00ba 0102330
HFDTE120819
HFFXA010
HFPLTPILOT:FONSI           
HFCM2CREW2:NKN
HFGTYGLIDERTYPE:WW SS135        
HFGIDGLIDERID:GOLCONDA        
HFDTM100GPSDATUM:WGS84
HFRFWFIRMWAREVERSION: 2.00.00
HFRHWHARDWAREVERSION:1.00
HFFTYFRTYPE:Flytec Element Track
HFGPS:FASTRAX,IT430,48
HFPRSPRESSALTSENSOR:INTERSEMA,MS5401BM,12000
HFALGALTGPS:GEO
HFALPALTPRESSURE:ISA
HFTZNUTCOFFSET:  0.00h
I033638FXA3940SIU4143TAS
C120819181510120819001902
C3216318N10141612W TAKEOFF
C3216318N10141612W START  50KM             00000000017910000000360000AREA
C3224331N10120354W TURN   12T              00000000000990000000360000AREA
C3231644N10104328W TURN   3T               00000000000990000000360000AREA
C3241862N10057036W FINISH WINSTN           00000000000990000000360000AREA
C3241862N10057036W LANDING
F195708051213152021252629
B1957083212630N10131587WA007840077700209000
F195738051213152021252629
B1957383212630N10131587WA007840077700209000
F195808051213152021252629
B1958083212630N10131587WA007840077700209000
F195838051213152021252629
B1958383212630N10131587WA007850077700209000
F195908051213152021252629
B1959083212630N10131587WA007850077700509000
F195938051213152021252629
B1959383212630N10131587WA007840077700509000
F200008051213152021252629
B2000083212629N10131587WA007840077600509000
F200038051213152021252629
B2000383212628N10131587WA007850077600309000
F200108051213152021252629
B2001083212626N10131587WA007850077500409000
E200113STA
E200113ATS1012.1
LFLYA1 00777
B2001133212604N10131589WA007880077500409000
B2001183212568N10131590WA007920077600209000
B2001233212532N10131592WA008040078500409000
B2001283212496N10131603WA008110079700409000
B2001333212462N10131619WA008220080900509000
B2001383212437N10131656WA008340082200509000
B2001433212415N10131692WA008560083900409000
B2001483212389N10131720WA008720086100609000
B2001533212362N10131749WA008910088300309000
B2001583212331N10131783WA009010090200609000
B2002033212299N10131817WA009070091100309000
B2002083212268N10131839WA009200092100309000
B2002133212236N10131862WA009270093000309000
B2002183212202N10131883WA009330093400309000
B2002233212170N10131896WA009450094500409000
B2002283212137N10131909WA009610096300309000
B2002333212102N10131926WA009670097700309000
B2002383212068N10131940WA009880099100309000
B2002433212039N10131949WA010110101500309000
B2002483212017N10131968WA010300103800509000
B2002533211993N10131994WA010460105700409000
B2002583211970N10132019WA010550107100509000
B2003033211941N10132042WA010480107200509000
B2003083211910N10132055WA010500107400409000
B2003133211882N10132072WA010520107400309000
B2003183211858N10132094WA010520107300309000
B2003233211833N10132115WA010560107300309000
B2003283211805N10132131WA010610107400309000
B2003333211771N10132142WA010630107600309000
B2003383211740N10132160WA010770108600309000
B2003433211716N10132191WA010880110300409000
B2003483211703N10132230WA010950111500509000
B2003533211701N10132275WA011060113000309000
B2003583211716N10132321WA011140114000309000
B2004033211744N10132361WA011270115300309000
B2004083211786N10132392WA011330115800609000
B2004133211839N10132411WA011460117000609000
B2004183211897N10132419WA011600118400309000
B2004233211959N10132420WA011750119900309000
B2004283212021N10132398WA011820120900509000
B2004333212079N10132362WA011910121800509000
B2004383212135N10132323WA012020122700509000
B2004433212184N10132275WA012140124100209000
B2004483212221N10132216WA012240125300309000
B2004533212248N10132151WA012370126600309000
B2004583212256N10132085WA012470127900509000
B2005033212250N10132024WA012570129000509000
B2005083212228N10131972WA012600129400509000
B2005133212204N10131926WA012590129400409000
B2005183212175N10131894WA012580129300509000
B2005233212144N10131883WA012580129300409000
B2005283212118N10131890WA012560129300409000
B2005333212099N10131907WA012610129600309000
B2005383212087N10131935WA012720130500309000
B2005433212081N10131973WA012770131000309000
B2005483212081N10132018WA012770131200309000
B2005533212095N10132062WA012870131800309000
B2005583212109N10132108WA013010133400309000
B2006033212114N10132154WA013090134500309000
B2006083212109N10132194WA013210135700409000
B2006133212099N10132228WA013350136900409000
B2006183212094N10132264WA013460138300409000
B2006233212101N10132304WA013470138700409000
B2006283212104N10132347WA013520138900409000
B2006333212102N10132391WA013550139500409000
B2006383212103N10132434WA013590140000409000
B2006433212104N10132478WA013580140100309000
B2006483212093N10132517WA013480139500409000
B2006533212077N10132552WA013370138800409000
B2006583212065N10132589WA013310138000609000
B2007033212062N10132625WA013340137700309000
B2007083212059N10132666WA013290137500409000
B2007133212056N10132709WA013230137100409000
B2007183212052N10132748WA013260137000309000
B2007233212043N10132785WA013290137100309000
B2007283212026N10132818WA013290137200509000
B2007333212006N10132852WA013290137300509000
B2007383211986N10132880WA013290137300309000
B2007433211966N10132905WA013290137500609000
B2007483211946N10132933WA013330137700209000
B2007533211935N10132968WA013410138400209000
B2007583211926N10133002WA013490139100309000
B2008033211915N10133037WA013570139800609000
B2008083211897N10133067WA013640140500309000
B2008133211873N10133091WA013630140800609000
B2008183211855N10133118WA013640141000209000
B2008233211839N10133149WA013620140900209000
B2008283211816N10133175WA013610140800509000
B2008333211788N10133195WA013620140700309000
B2008383211760N10133219WA013610140600509000
B2008433211732N10133244WA013710140900309000
B2008483211705N10133267WA013830142000509000
B2008533211679N10133298WA013940143100509000
B2008583211654N10133334WA014130145500509000
B2009033211628N10133363WA014330148000309000
B2009083211599N10133391WA014470150000509000
B2009133211572N10133416WA014730152600309000
B2009183211540N10133439WA015010155700509000
B2009233211502N10133454WA015290158800309000
B2009283211470N10133460WA015410161400609000
B2009333211444N10133452WA015500162500409000
B2009383211417N10133441WA015560163300709000
B2009433211390N10133438WA015590163700509000
B2009483211373N10133409WA015640164100709000
B2009533211385N10133362WA015640164000509000
B2009583211418N10133322WA015610163700609000
B2010033211458N10133300WA015640163600609000
B2010083211500N10133307WA015680163700609000
B2010133211530N10133332WA015700163800609000
B2010183211533N10133367WA015720163900509000
B2010233211522N10133393WA015810164400609000
B2010283211500N10133387WA015850165100609000
B2010333211495N10133346WA015860165800809000
B2010383211511N10133298WA015900166300509000
B2010433211541N10133255WA015910166700309000
B2010483211580N10133237WA015960167000609000
B2010533211616N10133251WA015980167100609000
B2010583211645N10133280WA016000167100509000
B2011033211652N10133309WA016090167600709000
B2011083211633N10133310WA016130168000709000
B2011133211619N10133280WA016150168500609000
B2011183211624N10133230WA016130168800509000
B2011233211649N10133184WA016190169300509000
B2011283211687N10133159WA016240170000509000
B2011333211728N10133162WA016280170400509000
B2011383211747N10133195WA016370170900709000
B2011433211728N10133222WA016420171600709000
B2011483211700N10133216WA016500172400909000
B2011533211676N10133199WA016550173000709000
B2011583211668N10133154WA016560173400809000
B2012033211684N10133105WA016660173800509000
B2012083211722N10133084WA016710174400509000
B2012133211754N10133105WA016740174900609000
B2012183211763N10133141WA016790175600509000
B2012233211746N10133167WA016840176100609000
B2012283211721N10133165WA016910176700709000
B2012333211710N10133131WA016880177001009000
B2012383211725N10133073WA016850176800509000
B2012433211753N10133030WA016880177000609000
B2012483211794N10133013WA016900177100509000
B2012533211831N10133028WA016950177300609000
B2012583211847N10133066WA016930177300809000
B2013033211835N10133096WA016970177600809000
B2013083211809N10133104WA016970177600809000
B2013133211782N10133084WA016990177600709000
B2013183211766N10133045WA016940177400909000
B2013233211765N10132994WA016960177300809000
B2013283211786N10132944WA016910177200509000
B2013333211825N10132921WA016920177200809000
B2013383211872N10132925WA016900177100409000
B2013433211910N10132945WA016930177300509000
B2013483211946N10132968WA016920177300609000
B2013533211957N10133004WA016920177300609000
B2013583211950N10133032WA016870177100609000
B2014033211939N10133057WA016840176800609000
B2014083211922N10133073WA016910177100709000
B2014133211899N10133078WA016920177200609000
B2014183211873N10133050WA016930177400509000
B2014233211859N10133012WA016940177500709000
B2014283211861N10132968WA017000178300509000
B2014333211892N10132934WA017000178400409000
B2014383211934N10132935WA016990178200609000
B2014433211960N10132968WA017020178400509000
B2014483211966N10133006WA017090179000509000
B2014533211949N10133024WA017150179600609000
B2014583211928N10133015WA017240180300709000
B2015033211915N10132982WA017280180900509000
B2015083211920N10132941WA017320181500509000
B2015133211943N10132898WA017360182000409000
B2015183211970N10132862WA017370182300509000
B2015233212003N10132830WA017390182400409000
B2015283212044N10132811WA017360182200609000
B2015333212088N10132822WA017340181900409000
B2015383212120N10132847WA017330181700609000
B2015433212137N10132882WA017290181400409000
B2015483212130N10132917WA017310181400609000
B2015533212112N10132927WA017430182000809000
B2015583212092N10132904WA017500182900409000
B2016033212093N10132860WA017520183600609000
B2016083212118N10132819WA017570184100409000
B2016133212154N10132794WA017550184500509000
B2016183212199N10132793WA017510184200309000
B2016233212243N10132801WA017460183700309000
B2016283212288N10132806WA017380182800409000
B2016333212335N10132801WA017350182200409000
B2016383212378N10132789WA017250181400509000
B2016433212425N10132782WA017280181200509000
B2016483212475N10132781WA017260181000409000
B2016533212523N10132782WA017330181600509000
B2016583212573N10132797WA017420182500409000
B2017033212610N10132828WA017510183500509000
B2017083212630N10132874WA017560184200609000
B2017133212630N10132916WA017590184800709000
B2017183212616N10132948WA017580184900609000
B2017233212596N10132954WA017730185800609000
B2017283212575N10132943WA017830187000709000
B2017333212557N10132931WA017900188000709000
B2017383212549N10132898WA017970188800709000
B2017433212547N10132857WA018000189400609000
B2017483212558N10132810WA017960189200509000
B2017533212584N10132771WA017960189100609000
B2017583212618N10132737WA017990189300309000
B2018033212665N10132716WA018060189800509000
B2018083212715N10132712WA018100190300609000
B2018133212763N10132744WA018190191000609000
B2018183212794N10132792WA018220191500709000
B2018233212819N10132840WA018280191900809000
B2018283212823N10132886WA018270192000709000
B2018333212806N10132908WA018270192100609000
B2018383212785N10132901WA018300192400609000
B2018433212768N10132880WA018320192500409000
B2018483212760N10132845WA018270192200509000
B2018533212773N10132801WA018300192300509000
B2018583212808N10132755WA018310192300609000
B2019033212844N10132713WA018320192300409000
B2019083212895N10132689WA018360192600509000
B2019133212952N10132694WA018530193500509000
B2019183212976N10132728WA018560194600809000
B2019233212959N10132757WA018710196301009000
B2019283212937N10132749WA018760197200909000
B2019333212925N10132714WA018790197900609000
B2019383212925N10132670WA018880198500709000
B2019433212935N10132626WA018940199300609000
B2019483212952N10132588WA019030200000609000
B2019533212970N10132543WA019130200900709000
B2019583212999N10132505WA019260202200509000
B2020033213044N10132497WA019450204000809000
B2020083213062N10132525WA019600206100809000
B2020133213052N10132549WA019760208200809000
B2020183213030N10132551WA019880209800609000
B2020233213012N10132545WA019950211000409000
B2020283212987N10132547WA020000211800709000
B2020333212968N10132522WA019910211900809000
B2020383212980N10132472WA020070212000909000
B2020433213016N10132443WA020140212200609000
B2020483213059N10132437WA020260213100409000
B2020533213096N10132454WA020480214900609000
B2020583213110N10132489WA020640217200609000
B2021033213094N10132505WA020740219000809000
B2021083213073N10132488WA020860220500609000
B2021133213052N10132466WA020930221700509000
B2021183213059N10132427WA021030222600609000
B2021233213101N10132403WA021090223000509000
B2021283213145N10132400WA021260224200409000
B2021333213164N10132427WA021370225800909000
B2021383213156N10132454WA021440226500809000
B2021433213133N10132453WA021470226900709000
B2021483213127N10132418WA021580227600909000
B2021533213143N10132377WA021730228900709000
B2021583213175N10132349WA021890231000409000
B2022033213213N10132350WA022060232900309000
B2022083213242N10132374WA022240234900509000
B2022133213254N10132409WA022330236200609000
B2022183213259N10132453WA022300236800609000
B2022233213245N10132476WA022330237000809000
B2022283213224N10132470WA022390237300509000
B2022333213208N10132452WA022430237700609000
B2022383213200N10132424WA022470238000609000
B2022433213203N10132387WA022500238400609000
B2022483213227N10132344WA022540238700409000
B2022533213271N10132324WA022660239700409000
B2022583213311N10132337WA022810241100509000
B2023033213330N10132376WA022950242700509000
B2023083213327N10132419WA022950243400809000
B2023133213313N10132442WA023060244300609000
B2023183213294N10132427WA023050244500609000
B2023233213291N10132391WA023090244700609000
B2023283213304N10132350WA023140245100509000
B2023333213328N10132309WA023210245700409000
B2023383213365N10132280WA023320246900509000
B2023433213406N10132261WA023400247900509000
B2023483213448N10132266WA023460248600409000
B2023533213480N10132298WA023520249200509000
B2023583213491N10132338WA023600249900509000
B2024033213471N10132366WA023600250300909000
B2024083213441N10132368WA023620250500809000
B2024133213418N10132344WA023690251100509000
B2024183213418N10132299WA023760251700509000
B2024233213437N10132257WA023840252500509000
B2024283213471N10132224WA023940253600409000
B2024333213515N10132204WA024040254700609000
B2024383213559N10132215WA024170255800509000
B2024433213584N10132252WA024240256900609000
B2024483213579N10132292WA024310257500809000
B2024533213559N10132319WA024400258300709000
B2024583213531N10132309WA024450259100809000
B2025033213518N10132276WA024510259800509000
B2025083213526N10132231WA024540260200509000
B2025133213560N10132192WA024640261400409000
B2025183213601N10132167WA024720262300509000
B2025233213650N10132165WA024810263300409000
B2025283213696N10132182WA024870264000409000
B2025333213732N10132205WA024940264900609000
B2025383213746N10132243WA024930265000709000
B2025433213730N10132271WA024940265000409000
B2025483213703N10132274WA024920264900709000
B2025533213678N10132253WA024980265000609000
B2025583213671N10132213WA025020265400609000
B2026033213682N10132166WA025100266100609000
B2026083213714N10132128WA025190267000309000
B2026133213760N10132110WA025260267900509000
B2026183213808N10132112WA025320268600309000
B2026233213853N10132122WA025330268800309000
B2026283213888N10132150WA025390269200609000
B2026333213895N10132189WA025330269100709000
B2026383213871N10132206WA025320268900809000
B2026433213844N10132203WA025300268900609000
B2026483213823N10132180WA025330269100409000
B2026533213819N10132138WA025360269400409000
B2026583213829N10132091WA025400269800509000
B2027033213850N10132044WA025430270200509000
B2027083213889N10132005WA025480270700309000
B2027133213935N10131975WA025510271000509000
B2027183213984N10131972WA025550271300309000
B2027233214019N10132000WA025560271400609000
B2027283214035N10132034WA025590271800509000
B2027333214026N10132063WA025580271700709000
B2027383214004N10132063WA025570271600709000
B2027433213984N10132035WA025520271400409000
B2027483213984N10131987WA025520271500709000
B2027533214013N10131939WA025530271400409000
B2027583214053N10131905WA025560271700509000
B2028033214102N10131890WA025630272000509000
B2028083214150N10131894WA025640272300309000
B2028133214185N10131921WA025650272400509000
B2028183214203N10131961WA025710272900509000
B2028233214205N10131995WA025720273200609000
B2028283214190N10132014WA025720273200609000
B2028333214172N10132014WA025730273200709000
B2028383214151N10132008WA025690273100709000
B2028433214136N10131981WA025690273100509000
B2028483214136N10131935WA025710273300609000
B2028533214162N10131885WA025690273200609000
B2028583214202N10131844WA025680273000409000
B2029033214245N10131809WA025720273200309000
B2029083214295N10131779WA025740273500509000
B2029133214355N10131779WA025860274700409000
B2029183214397N10131809WA026020276200609000
B2029233214420N10131847WA026120277500509000
B2029283214423N10131880WA026140277900709000
B2029333214409N10131898WA026140277800609000
B2029383214389N10131897WA026080277500709000
B2029433214369N10131873WA025970276900609000
B2029483214377N10131819WA025910275900709000
B2029533214407N10131771WA025880275400609000
B2029583214441N10131721WA025950275500609000
B2030033214483N10131691WA026050276200609000
B2030083214539N10131708WA026140277200809000
B2030133214553N10131745WA026250278801209000
B2030183214532N10131751WA026270279100909000
B2030233214520N10131717WA026300279400909000
B2030283214535N10131663WA026390280400909000
B2030333214567N10131619WA026450281000509000
B2030383214610N10131578WA026540281900309000
B2030433214658N10131557WA026660283100509000
B2030483214708N10131569WA026740284000609000
B2030533214735N10131601WA026810284900709000
B2030583214738N10131638WA026830285500709000
B2031033214722N10131656WA026850285800709000
B2031083214707N10131633WA026920286300509000
B2031133214716N10131580WA026930286700709000
B2031183214755N10131532WA026950287100609000
B2031233214813N10131523WA027080287700709000
B2031283214852N10131556WA027100288000709000
B2031333214857N10131597WA027140288500809000
B2031383214840N10131607WA027180288800809000
B2031433214827N10131576WA027210289200409000
B2031483214837N10131525WA027270290000509000
B2031533214875N10131481WA027320290700509000
B2031583214928N10131473WA027390291400509000
B2032033214967N10131506WA027400291600909000
B2032083214972N10131539WA027410291800809000
B2032133214956N10131542WA027450291900809000
B2032183214949N10131503WA027480292100509000
B2032233214972N10131452WA027490292300609000
B2032283215022N10131422WA027490292500409000
B2032333215075N10131435WA027520292700609000
B2032383215108N10131471WA027570293100609000
B2032433215108N10131502WA027560293200409000
B2032483215089N10131492WA027560293200809000
B2032533215092N10131440WA027560293201009000
B2032583215125N10131388WA027530293200509000
B2033033215177N10131364WA027580293400909000
B2033083215233N10131365WA027630293700609000
B2033133215286N10131358WA027650293800609000
B2033183215342N10131336WA027620293900509000
B2033233215391N10131305WA027570293600409000
B2033283215439N10131272WA027460292400309000
B2033333215484N10131244WA027350291000409000
B2033383215532N10131220WA027190289300309000
B2033433215580N10131195WA027070287900309000
B2033483215626N10131173WA026900286200309000
B2033533215675N10131165WA026810285000509000
B2033583215722N10131159WA026760284300409000
B2034033215766N10131141WA026680283700409000
B2034083215808N10131108WA026580282600409000
B2034133215853N10131078WA026520281900509000
F2034180513152021252629
B2034183215899N10131054WA026410280800608000
B2034233215951N10131041WA026270279100408000
B2034283216003N10131025WA026130277700508000
B2034333216051N10130997WA026040276600508000
B2034383216101N10130971WA025950275500508000
B2034433216149N10130947WA025920274800408000
B2034483216193N10130919WA025860274300608000
B2034533216238N10130892WA025760273300608000
B2034583216280N10130866WA025700272600508000
B2035033216317N10130831WA025570271500408000
B2035083216352N10130797WA025500270700408000
B2035133216393N10130770WA025410269700508000
B2035183216437N10130744WA025260268500508000
B2035233216475N10130711WA025190267600508000
B2035283216513N10130675WA025100266600508000
B2035333216553N10130643WA025030265700508000
B2035383216593N10130608WA024910264500308000
B2035433216633N10130575WA024810263400408000
B2035483216674N10130542WA024720262200508000
B2035533216711N10130508WA024640261300508000
B2035583216753N10130475WA024560260400608000
B2036033216797N10130460WA024530259800408000
B2036083216842N10130456WA024500259500308000
B2036133216885N10130444WA024480259200308000
B2036183216928N10130425WA024430258900408000
B2036233216970N10130394WA024360258300408000
B2036283217010N10130355WA024220257100408000
B2036333217046N10130313WA024100255900608000
B2036383217080N10130269WA024000254700408000
B2036433217113N10130224WA023890253400408000
B2036483217144N10130179WA023810252300408000
B2036533217175N10130134WA023690251200308000
B2036583217212N10130091WA023580250000308000
B2037033217251N10130053WA023490248900508000
B2037083217293N10130024WA023350247400508000
B2037133217339N10130001WA023210245800408000
B2037183217383N10129986WA023070244400508000
B2037233217430N10129976WA022930242800408000
B2037283217480N10129963WA022850241600508000
B2037333217527N10129935WA022730240400508000
B2037383217572N10129902WA022560238900508000
B2037433217616N10129869WA022430237400608000
B2037483217655N10129827WA022300235800508000
B2037533217687N10129786WA022130234000408000
B2037583217719N10129747WA021960232200308000
B2038033217753N10129708WA021820230500308000
B2038083217783N10129665WA021720229300508000
B2038133217810N10129619WA021630228200408000
B2038183217840N10129572WA021530227100308000
B2038233217872N10129530WA021490226400308000
B2038283217908N10129488WA021400225800308000
B2038333217943N10129449WA021370225400408000
B2038383217974N10129412WA021350225100508000
B2038433218009N10129377WA021260224600608000
B2038483218052N10129347WA021190224000408000
B2038533218089N10129313WA021160223600508000
B2038583218128N10129275WA021080222800408000
B2039033218169N10129232WA021040222200408000
B2039083218208N10129192WA021070222100508000
B2039133218253N10129190WA021140222600608000
B2039183218257N10129210WA021210223300908000
B2039233218230N10129200WA021190223401008000
B2039283218223N10129147WA021210223501008000
B2039333218248N10129092WA021220223800908000
B2039383218289N10129062WA021310224600608000
B2039433218323N10129067WA021330225000608000
B2039483218311N10129079WA021390225401208000
B2039533218290N10129035WA021390225501308000
B2039583218308N10128977WA021430225700808000
B2040033218356N10128951WA021430225800708000
B2040083218400N10128948WA021410225900608000
B2040133218413N10128974WA021390225900908000
B2040183218388N10128969WA021400225901208000
B2040233218374N10128910WA021410225901108000
B2040283218397N10128851WA021440226400608000
B2040333218442N10128815WA021360225900708000
B2040383218486N10128787WA021390225800608000
B2040433218528N10128786WA021330225500708000
B2040483218545N10128805WA021350225500808000
B2040533218521N10128801WA021340225401008000
B2040583218504N10128748WA021380225400708000
B2041033218516N10128685WA021360225500808000
B2041083218551N10128637WA021300225000808000
B2041133218602N10128616WA021250224600808000
B2041183218631N10128641WA021200224001008000
B2041233218612N10128653WA021230223901008000
B2041283218588N10128617WA021250224000608000
B2041333218585N10128559WA021190223900708000
B2041383218613N10128503WA021180223700508000
B2041433218660N10128466WA021090223200608000
B2041483218705N10128470WA021060222800708000
B2041533218701N10128494WA021060222401008000
B2041583218676N10128467WA021100222500608000
B2042033218673N10128414WA021030222300908000
B2042083218710N10128365WA021050222000808000
B2042133218753N10128370WA020980221701008000
B2042183218762N10128397WA020990221601108000
B2042233218734N10128397WA021010221501208000
B2042283218721N10128347WA020990221301008000
B2042333218741N10128289WA020940220900708000
B2042383218783N10128255WA020950220700708000
B2042433218809N10128274WA020940220701008000
B2042483218784N10128277WA020930220700908000
B2042533218766N10128232WA020890220400808000
B2042583218777N10128170WA020870220400808000
B2043033218820N10128131WA020900220400708000
B2043083218868N10128132WA020930220700608000
B2043133218888N10128156WA020930220800708000
B2043183218868N10128166WA020950220900908000
B2043233218842N10128135WA020930220800608000
B2043283218833N10128084WA020930220900508000
B2043333218837N10128027WA020910220700608000
B2043383218854N10127972WA020940220800608000
B2043433218889N10127930WA020970221000508000
B2043483218936N10127925WA021000221400708000
B2043533218970N10127943WA021040221800608000
B2043583218977N10127965WA021060222200708000
B2044033218962N10127972WA021020221900808000
B2044083218940N10127950WA020980221600708000
B2044133218928N10127902WA020940221200608000
B2044183218924N10127851WA020930220900508000
B2044233218944N10127797WA020930220900508000
B2044283218989N10127768WA020960221000608000
B2044333219034N10127777WA021030221500508000
B2044383219056N10127807WA021060221900708000
B2044433219042N10127822WA021090222200808000
B2044483219023N10127795WA021120222400908000
B2044533219020N10127740WA021170223000808000
B2044583219041N10127684WA021230223700408000
B2045033219084N10127646WA021250224100508000
B2045083219131N10127646WA021300224800408000
B2045133219160N10127671WA021350225300708000
B2045183219157N10127694WA021390225600708000
B2045233219130N10127684WA021410225701208000
B2045283219122N10127630WA021460226001208000
B2045333219133N10127574WA021510226600908000
B2045383219165N10127524WA021550227200408000
B2045433219212N10127500WA021580227700608000
B2045483219252N10127511WA021630228200608000
B2045533219257N10127534WA021670228600808000
B2045583219236N10127516WA021710229100908000
B2046033219240N10127460WA021760229601008000
B2046083219277N10127419WA021790230000608000
B2046133219322N10127423WA021820230300708000
B2046183219338N10127447WA021860230700708000
B2046233219326N10127459WA021910231000808000
B2046283219305N10127444WA021940231400508000
B2046333219295N10127397WA021990231800508000
B2046383219300N10127341WA022010232100708000
B2046433219322N10127287WA022000232200608000
B2046483219368N10127257WA022000232200608000
B2046533219411N10127267WA021950232000708000
B2046583219412N10127292WA021960232000908000
B2047033219393N10127292WA021990232200708000
B2047083219372N10127269WA022000232300808000
B2047133219365N10127217WA022000232400608000
B2047183219384N10127159WA021970232200808000
B2047233219418N10127110WA021960232000508000
B2047283219463N10127092WA021980231900508000
B2047333219500N10127115WA021940231701008000
B2047383219512N10127139WA021940231600708000
B2047433219493N10127138WA021940231700808000
B2047483219482N10127086WA021930231801008000
B2047533219513N10127035WA021920231400608000
B2047583219563N10127005WA021920231400608000
B2048033219613N10126991WA021930231600408000
B2048083219642N10127011WA021900231500808000
B2048133219627N10127025WA021890231401008000
B2048183219604N10127015WA021880231300908000
B2048233219590N10126970WA021860231100608000
B2048283219597N10126911WA021860231100808000
B2048333219631N10126864WA021880231100508000
B2048383219678N10126846WA021870231000508000
B2048433219719N10126851WA021890231100408000
B2048483219735N10126872WA021860231000608000
B2048533219722N10126881WA021800230800608000
B2048583219700N10126854WA021780230401008000
B2049033219693N10126802WA021800230400508000
B2049083219697N10126747WA021780230300808000
B2049133219717N10126686WA021750229900708000
B2049183219763N10126640WA021810230100808000
B2049233219814N10126629WA021880230500608000
B2049283219844N10126652WA021880230901008000
B2049333219838N10126673WA021820230600908000
B2049383219812N10126643WA021800230501208000
B2049433219801N10126591WA021790230500708000
B2049483219801N10126534WA021880230900808000
B2049533219814N10126482WA021880231300608000
B2049583219853N10126439WA021910231600608000
B2050033219899N10126438WA021970232100708000
B2050083219916N10126458WA022060232800908000
B2050133219899N10126458WA022140233500908000
B2050183219893N10126411WA022160234101208000
B2050233219925N10126353WA022190234400608000
B2050283219982N10126329WA022120234100708000
B2050333220027N10126343WA022200234200908000
B2050383220053N10126365WA022220234400708000
B2050433220052N10126388WA022220234600708000
B2050483220029N10126372WA022200234601008000
B2050533220028N10126312WA022230234801008000
B2050583220064N10126257WA022280235100608000
B2051033220112N10126213WA022230234900708000
B2051083220170N10126188WA022220234900508000
B2051133220226N10126171WA022290235500608000
B2051183220275N10126179WA022390236200508000
B2051233220294N10126207WA022470236800808000
B2051283220282N10126212WA022520237401208000
B2051333220262N10126179WA022600238001008000
B2051383220259N10126122WA022590238500708000
B2051433220278N10126059WA022600238800908000
B2051483220314N10125997WA022620239000708000
B2051533220352N10125949WA022730239800508000
B2051583220400N10125925WA022660240200608000
B2052033220456N10125910WA022380238600708000
B2052083220505N10125925WA022150235800608000
B2052133220526N10125958WA021990233401008000
B2052183220504N10125963WA021970231600908000
B2052233220494N10125918WA021790230001208000
B2052283220505N10125870WA021670229201008000
B2052333220527N10125822WA021450227200808000
B2052383220562N10125780WA021330225300408000
B2052433220602N10125743WA021200223600408000
B2052483220638N10125701WA021060222000408000
B2052533220675N10125660WA020930220500408000
B2052583220713N10125628WA020760218900408000
B2053033220752N10125599WA020570216800708000
B2053083220796N10125571WA020360214500408000
B2053133220840N10125567WA020190212400508000
B2053183220884N10125566WA019980210200408000
B2053233220928N10125569WA019660207200508000
B2053283220972N10125584WA019380203500908000
B2053333221015N10125572WA019230201100908000
B2053383221056N10125537WA019020198800608000
B2053433221097N10125504WA018800196800508000
B2053483221133N10125470WA018620195000608000
B2053533221161N10125421WA018370192500708000
B2053583221168N10125362WA018110189700608000
B2054033221174N10125304WA017820187000708000
B2054083221190N10125246WA017620184600808000
B2054133221215N10125196WA017460182600608000
B2054183221235N10125137WA017370181300808000
B2054233221244N10125081WA017300180700508000
B2054283221255N10125022WA017210179800508000
B2054333221278N10124967WA017170179200608000
B2054383221310N10124923WA017090178400408000
B2054433221348N10124889WA016990177500508000
B2054483221392N10124860WA016860176200508000
B2054533221431N10124826WA016740175000408000
B2054583221460N10124785WA016660173900608000
B2055033221487N10124741WA016570173100608000
B2055083221524N10124697WA016490172200408000
B2055133221561N10124663WA016460171600408000
B2055183221597N10124626WA016360170700508000
B2055233221630N10124592WA016260169700408000
B2055283221670N10124568WA016150168600308000
B2055333221714N10124553WA016060167500608000
B2055383221758N10124534WA015940166300508000
B2055433221796N10124501WA015830165000308000
B2055483221834N10124468WA015710163800308000
B2055533221870N10124437WA015650162900608000
B2055583221903N10124396WA015510161500408000
B2056033221920N10124350WA015420160300608000
B2056083221922N10124301WA015340159300508000
B2056133221919N10124254WA015230158300508000
B2056183221919N10124203WA015170157500508000
B2056233221928N10124156WA015100156800608000
B2056283221946N10124110WA015060156200408000
B2056333221967N10124065WA015000155500608000
B2056383221976N10124021WA014950155100708000
B2056433221981N10123979WA014840154200708000
B2056483221993N10123933WA014710152900708000
B2056533222013N10123888WA014610151700408000
B2056583222046N10123845WA014500150300408000
B2057033222078N10123805WA014390148900608000
B2057083222107N10123762WA014300147600608000
B2057133222118N10123713WA014200146700708000
B2057183222121N10123670WA014090145500608000
B2057233222126N10123627WA013940144100708000
B2057283222148N10123584WA013790142600508000
B2057333222184N10123547WA013640141000508000
B2057383222225N10123521WA013500139400408000
B2057433222266N10123495WA013340137800508000
B2057483222297N10123460WA013220136400508000
B2057533222328N10123427WA013100134900508000
B2057583222360N10123396WA013000133700408000
B2058033222395N10123369WA012900132600408000
B2058083222433N10123346WA012800131300508000
B2058133222477N10123320WA012680130200608000
B2058183222518N10123288WA012570128900508000
B2058233222549N10123236WA012460127800608000
B2058283222552N10123181WA012320126300608000
B2058333222538N10123140WA012210124900508000
B2058383222526N10123100WA012060123300408000
F20584305152021252629
B2058433222519N10123055WA011900121600407000
F2058480513152021252629
B2058483222509N10123012WA011770120200508000
B2058533222504N10122967WA011680119000508000
B2058583222505N10122923WA011710118700908000
B2059033222526N10122881WA011690118800608000
B2059083222571N10122885WA011780119300708000
B2059133222574N10122914WA011820119901108000
B2059183222553N10122918WA011760120100908000
B2059233222529N10122891WA011820120500808000
B2059283222535N10122847WA011850120901108000
B2059333222572N10122816WA011910121500708000
B2059383222617N10122827WA011910121800608000
B2059433222629N10122860WA011970122400708000
B2059483222607N10122861WA011990122601008000
B2059533222601N10122820WA012090123301008000
B2059583222629N10122780WA012170124200708000
B2100033222679N10122780WA012200124601108000
B2100083222704N10122815WA012250125201008000
B2100133222696N10122833WA012240125300708000
B2100183222677N10122849WA012200125200608000
B2100233222649N10122850WA012190125100708000
B2100283222634N10122817WA012270125600708000
B2100333222635N10122773WA012430126400708000
B2100383222659N10122740WA012460127201108000
B2100433222711N10122736WA012560128300808000
B2100483222746N10122760WA012660129700808000
B2100533222745N10122786WA012700130401008000
B2100583222736N10122812WA012670130701008000
B2101033222763N10122847WA012610130300608000
B2101083222774N10122880WA012510129301008000
B2101133222746N10122883WA012390127800608000
B2101183222738N10122840WA012390127600708000
B2101233222757N10122799WA012390127400508000
B2101283222797N10122780WA012410127300708000
B2101333222837N10122793WA012380127000508000
B2101383222845N10122826WA012220125900808000
B2101433222817N10122822WA012120124500908000
B2101483222812N10122775WA012070123600808000
B2101533222837N10122734WA012080123300908000
B2101583222880N10122715WA012050123100808000
B2102033222911N10122744WA011860122500908000
B2102083222888N10122761WA011710120801408000
B2102133222867N10122720WA011550118500808000
B2102183222865N10122670WA011580117701408000
B2102233222905N10122646WA011560117601008000
B2102283222926N10122678WA011490117301008000
B2102333222896N10122685WA011380116401208000
B2102383222877N10122640WA011370116000808000
B2102433222882N10122594WA011390115901008000
B2102483222920N10122573WA011360115800808000
B2102533222947N10122605WA011360115701008000
B2102583222926N10122625WA011330115300908000
B2103033222901N10122595WA011320115300608000
B2103083222905N10122548WA011350115600808000
B2103133222937N10122516WA011310115300708000
B2103183222972N10122535WA011290114900908000
B2103233222964N10122565WA011230114600908000
B2103283222933N10122560WA011190114200808000
B2103333222915N10122520WA011220114200608000
B2103383222917N10122470WA011270114500608000
B2103433222953N10122440WA011310114900708000
B2103483222986N10122460WA011340115100508000
B2103533222981N10122489WA011320115200608000
B2103583222952N10122479WA011330115201408000
B2104033222944N10122431WA011420115801008000
B2104083222964N10122380WA011450116400608000
B2104133223007N10122363WA011480116600908000
B2104183223029N10122393WA011530116801008000
B2104233223012N10122415WA011550117000708000
B2104283222985N10122408WA011600117500808000
B2104333222970N10122370WA011710118500908000
B2104383222997N10122329WA011750119200708000
B2104433223037N10122332WA011800119900708000
B2104483223045N10122359WA011870120500808000
B2104533223028N10122367WA011950121500808000
B2104583223013N10122333WA012030122500708000
B2105033223036N10122285WA012080123200808000
B2105083223078N10122282WA012140123600608000
B2105133223092N10122311WA012200124200808000
B2105183223075N10122323WA012300125400708000
B2105233223061N10122290WA012370126400608000
B2105283223086N10122251WA012480127500908000
B2105333223127N10122249WA012550128400808000
B2105383223149N10122282WA012590129000708000
B2105433223134N10122301WA012700130000808000
B2105483223117N10122271WA012810131100708000
B2105533223129N10122224WA012930132401008000
B2105583223167N10122200WA013010133500708000
B2106033223200N10122227WA013060134301308000
B2106083223190N10122256WA013140135001008000
B2106133223165N10122247WA013270136300708000
B2106183223158N10122205WA013340137300708000
B2106233223169N10122158WA013440138500708000
B2106283223201N10122132WA013470139100508000
B2106333223238N10122152WA013380138700708000
B2106383223219N10122179WA013480138401008000
B2106433223190N10122167WA013530139000808000
B2106483223173N10122128WA013560139600808000
B2106533223185N10122080WA013610140000708000
B2106583223216N10122047WA013640140400608000
B2107033223261N10122048WA013560140400708000
B2107083223278N10122087WA013570140200708000
B2107133223262N10122115WA013600140300708000
B2107183223232N10122098WA013600140200808000
B2107233223225N10122051WA013620140300808000
B2107283223241N10122004WA013620140300808000
B2107333223272N10121965WA013570140300608000
B2107383223321N10121957WA013570140101108000
B2107433223353N10121989WA013490139900708000
B2107483223344N10122020WA013460139200608000
B2107533223314N10122017WA013420138700908000
B2107583223300N10121979WA013440138900608000
B2108033223303N10121931WA013400138501008000
B2108083223336N10121883WA013370138100608000
B2108133223390N10121860WA013300137500608000
B2108183223440N10121866WA013210136900708000
B2108233223456N10121901WA013110135900708000
B2108283223429N10121904WA012980134001108000
B2108333223424N10121864WA012970133500808000
B2108383223441N10121814WA012920133100808000
B2108433223467N10121768WA012840132500808000
B2108483223496N10121728WA012720131300608000
B2108533223531N10121691WA012610130000508000
B2108583223573N10121660WA012500128900508000
B2109033223615N10121632WA012410127900508000
B2109083223653N10121608WA012360127100408000
B2109133223692N10121584WA012360126600508000
B2109183223718N10121536WA012310126100708000
B2109233223747N10121493WA012290125700608000
B2109283223789N10121460WA012290125600608000
B2109333223840N10121451WA012290125400708000
B2109383223865N10121481WA012180125101008000
B2109433223841N10121493WA012140124401008000
B2109483223822N10121461WA012100124000708000
B2109533223823N10121415WA012110123900608000
B2109583223845N10121362WA012140124000808000
B2110033223888N10121344WA012180124200708000
B2110083223926N10121362WA012150124100808000
B2110133223921N10121393WA012020123400708000
B2110183223898N10121381WA012020123100908000
B2110233223902N10121335WA012060123201008000
B2110283223945N10121299WA012020122900708000
B2110333223990N10121308WA012040122900608000
B2110383224006N10121338WA011980122501008000
B2110433223986N10121348WA011860121501108000
B2110483223968N10121316WA011840120900708000
B2110533223978N10121268WA011840120700708000
B2110583224001N10121217WA011850120700808000
B2111033224042N10121188WA011840120700608000
B2111083224090N10121172WA011730120300608000
B2111133224123N10121197WA011650119600908000
B2111183224105N10121210WA011530118401208000
B2111233224093N10121169WA011510117400808000
B2111283224093N10121120WA011420116600708000
B2111333224095N10121075WA011400116100708000
B2111383224118N10121030WA011320115200808000
B2111433224151N10120988WA011340114700708000
B2111473224185N10120980WA011320114800808000
B2111483224192N10120983WA011310114800708000
B2111493224198N10120989WA011300114701008000
B2111503224200N10120996WA011290114600908000
B2111513224201N10121002WA011290114600908000
B2111523224200N10121008WA011300114600808000
B2111533224197N10121012WA011290114600808000
B2111583224169N10121006WA011220114300908000
B2112033224161N10120960WA011290114601008000
B2112043224163N10120949WA011300114800808000
E211205TPC
B2112053224166N10120938WA011310114900708000
B2112063224170N10120928WA011330115000808000
B2112073224176N10120919WA011350115201008000
B2112083224183N10120911WA011360115300608000
B2112093224192N10120906WA011370115400608000
B2112103224201N10120902WA011370115400608000
B2112133224228N10120899WA011380115700908000
B2112183224249N10120921WA011340115700908000
B2112233224230N10120930WA011330115301108000
B2112283224216N10120888WA011330115100608000
B2112333224239N10120837WA011350115300508000
B2112383224282N10120826WA011340115301108000
B2112433224297N10120849WA011330115300808000
B2112483224281N10120862WA011290115100608000
B2112533224258N10120825WA011270114800608000
B2112583224264N10120771WA011340115100708000
B2113033224300N10120731WA011340115100608000
B2113083224340N10120738WA011320114900608000
B2113133224348N10120761WA011280114800508000
B2113183224323N10120762WA011200114300908000
B2113233224296N10120751WA011200114000708000
B2113283224279N10120710WA011210113900808000
B2113333224284N10120654WA011170113500708000
B2113383224302N10120597WA011060112800608000
B2113433224331N10120543WA010980111900508000
B2113483224364N10120488WA010900111000508000
B2113533224402N10120437WA010820110100608000
B2113583224443N10120393WA010720109200608000
B2114033224484N10120349WA010570108000608000
B2114083224521N10120310WA010470106500508000
B2114133224559N10120272WA010370105200608000
B2114183224595N10120236WA010260103900508000
B2114233224629N10120200WA010130102300708000
B2114283224659N10120154WA010010100700608000
B2114333224687N10120101WA009870099000808000
B2114383224723N10120050WA009790097800608000
B2114433224757N10119994WA009680096800908000
B2114483224749N10119940WA009530095301408000
B2114533224720N10119936WA009380093901008000
B2114583224706N10119953WA009370093300608000
B2115033224691N10119968WA009400093100908000
B2115083224675N10119964WA009320093000808000
B2115133224653N10119941WA009210092400708000
B2115183224637N10119955WA009010091000908000
B2115233224629N10119982WA008840089200608000
B2115283224613N10119998WA008760087600808000
B2115333224600N10120016WA008690086200508000
B2115383224588N10120039WA008580085000608000
B2115433224579N10120068WA008440083400708000
B2115483224568N10120095WA008360082500808000
B2115533224557N10120116WA008300081500908000
B2115583224546N10120140WA008220080900708000
B2116033224532N10120162WA008160080300608000
B2116083224518N10120182WA008100079700508000
B2116133224505N10120206WA008010079000508000
B2116183224488N10120229WA007930078300708000
B2116233224478N10120245WA007930077800708000
B2116283224477N10120245WA007920077900608000
B2116333224477N10120245WA007920077900508000
B2116383224477N10120245WA007920077900708000
B2116433224477N10120245WA007920077900608000
B2116483224477N10120245WA007920077900808000
B2116533224477N10120245WA007920077800508000
B2116583224477N10120245WA007920077800508000
B2117033224477N10120245WA007920077700608000
B2117083224477N10120245WA007930077700408000
B2117133224477N10120245WA007930077700308000
B2117183224477N10120244WA007930077500408000
B2117233224477N10120244WA007930077500408000
B2117283224477N10120244WA007930077500408000
B2117333224477N10120244WA007930077500408000
B2117383224477N10120244WA007930077500408000
B2117433224477N10120244WA007930077500608000
B2117483224477N10120244WA007930077500708000
B2117533224477N10120244WA007930077500408000
B2117583224477N10120244WA007930077500408000
B2118033224477N10120244WA007930077500308000
B2118083224477N10120244WA007930077500308000
B2118133224477N10120244WA007930077500308000
B2118183224477N10120244WA007930077500308000
B2118233224477N10120244WA007930077500408000
B2118283224477N10120244WA007930077500408000
B2118333224477N10120244WA007930077500408000
B2118383224477N10120244WA007930077500408000
B2118433224477N10120244WA007920077500408000
B2118483224477N10120244WA007930077500408000
B2118533224477N10120244WA007930077500408000
B2118583224477N10120244WA007930077500408000
B2119033224477N10120244WA007930077500408000
B2119083224477N10120244WA007930077500508000
B2119133224477N10120244WA007930077500508000
B2119183224477N10120244WA007930077500508000
B2119233224477N10120244WA007930077500508000
B2119283224477N10120244WA007930077500508000
GB8F1198BB68EB78735154762EC52F0DFF618286A2777E07C722E7015F02C1963
