AFLY00ba 0102330
HFDTE110819
HFFXA010
HFPLTPILOT:FONSI           
HFCM2CREW2:NKN
HFGTYGLIDERTYPE:WW US135        
HFGIDGLIDERID:GOLCONDA        
HFDTM100GPSDATUM:WGS84
HFRFWFIRMWAREVERSION: 2.00.00
HFRHWHARDWAREVERSION:1.00
HFFTYFRTYPE:Flytec Element Track
HFGPS:FASTRAX,IT430,48
HFPRSPRESSALTSENSOR:INTERSEMA,MS5401BM,12000
HFALGALTGPS:GEO
HFALPALTPRESSURE:ISA
HFTZNUTCOFFSET:  0.00h
I033638FXA3940SIU4143TAS
C110819204518110819001800
C3212975N10134630W TAKEOFF
C3212975N10134630W START  WEST5K           00000000005970000000360000AREA
C3245552N10155152W FINISH LAMESA           00000000000390000000360000AREA
C3245552N10155152W LANDING
F20532605131521252629
B2053263212629N10131588WA007760077600607000
F20535605131521252629
B2053563212629N10131588WA007760077600607000
F20542605131521252629
B2054263212630N10131588WA007760077600507000
F20545605131521252629
B2054563212629N10131588WA007760077600607000
F20552605131521252629
B2055263212629N10131588WA007760077600607000
F20555605131521252629
B2055563212629N10131588WA007760077600607000
F20562605131521252629
B2056263212629N10131588WA007760077600507000
F20565605131521252629
B2056563212627N10131588WA007760077600607000
F20572605131521252629
B2057263212625N10131588WA007760077600507000
E205750STA
E205750ATS1013.1
LFLYA1 00777
B2057503212600N10131589WA007780077600407000
B2057553212564N10131592WA007870077800507000
B2058003212534N10131595WA008020078500807000
B2058053212511N10131597WA008160079700807000
B2058103212484N10131594WA008290081600707000
B2058153212459N10131595WA008420083600907000
B2058203212439N10131609WA008580085600807000
B2058253212419N10131617WA008660086600907000
B2058303212392N10131606WA008710087300707000
B2058353212365N10131576WA008840088000807000
B2058403212360N10131517WA008910089200807000
B2058453212382N10131454WA009150091400807000
B2058503212437N10131405WA009250093100607000
B2058553212501N10131381WA009220094100807000
B2059003212569N10131380WA009270094300707000
B2059053212631N10131410WA009300094700707000
B2059103212678N10131460WA009420095400807000
B2059153212701N10131516WA009670097100607000
B2059203212691N10131562WA009900099500807000
B2059253212673N10131592WA010020101500607000
B2059303212646N10131603WA010160103100707000
B2059353212620N10131586WA010250104800507000
B2059403212604N10131541WA010340105800607000
B2059453212618N10131477WA010350105800807000
B2059503212665N10131437WA010560107001107000
B2059553212734N10131427WA010790109100807000
B2100003212796N10131459WA011020111800607000
B2100053212828N10131514WA011120113900707000
B2100103212830N10131554WA011220115600507000
B2100153212817N10131582WA011310116600407000
B2100203212807N10131616WA011380117300407000
B2100253212803N10131654WA011410117800407000
B2100303212804N10131695WA011550118500507000
B2100353212807N10131739WA011700119600407000
B2100403212809N10131785WA011750120600507000
B2100453212808N10131829WA011820121400407000
B2100503212807N10131871WA011890122300407000
B2100553212809N10131914WA011950123000407000
B2101003212812N10131957WA012020123800407000
B2101053212819N10132001WA012110124800607000
B2101103212826N10132046WA012220125900307000
B2101153212832N10132093WA012310127000707000
B2101203212836N10132137WA012420128100307000
B2101253212840N10132181WA012540129300507000
B2101303212847N10132226WA012620130500607000
B2101353212859N10132273WA012740131500507000
B2101403212870N10132319WA012810132500707000
B2101453212886N10132369WA012890133400607000
B2101503212918N10132417WA012940134000607000
B2101553212958N10132461WA012950134200607000
B2102003212981N10132510WA012990134500407000
B2102053212996N10132561WA013000134700407000
B2102103213001N10132613WA013020134700407000
B2102153212993N10132659WA013000134700407000
B2102203212972N10132694WA012980134500407000
B2102253212944N10132713WA013000134600407000
B2102303212914N10132711WA013030134800807000
B2102353212884N10132689WA013000134700607000
B2102403212856N10132666WA013000134700507000
B2102453212828N10132649WA012980134600507000
B2102503212801N10132632WA012890134200507000
B2102553212777N10132604WA012880134000507000
B2103003212751N10132572WA012840133300407000
B2103053212727N10132540WA012810132800507000
B2103103212702N10132510WA012820132700507000
B2103153212673N10132486WA012860133000507000
B2103203212645N10132456WA012870133200507000
B2103253212621N10132424WA012900133600907000
B2103303212597N10132394WA012990134200407000
B2103353212576N10132358WA013060134900407000
B2103403212556N10132320WA013050135200507000
B2103453212536N10132289WA013090135700507000
B2103503212513N10132265WA013140136200507000
B2103553212489N10132241WA013210136800407000
B2104003212463N10132212WA013250137200507000
B2104053212442N10132175WA013270137600507000
B2104103212419N10132144WA013290137700507000
B2104153212393N10132122WA013280137700507000
B2104203212367N10132097WA013280137700507000
B2104253212346N10132063WA013240137500507000
B2104303212324N10132030WA013230137500607000
B2104353212300N10132001WA013250137500507000
B2104403212275N10131974WA013240137500407000
B2104453212252N10131942WA013240137500307000
B2104503212235N10131904WA013240137400407000
B2104553212220N10131866WA013240137200707000
B2105003212201N10131828WA013220137100607000
B2105053212181N10131787WA013210137000707000
B2105103212166N10131741WA013230137100507000
B2105153212144N10131705WA013210137100307000
B2105203212122N10131678WA013200136800507000
B2105253212097N10131652WA013140136300707000
B2105303212072N10131630WA013160136400607000
B2105353212050N10131603WA013220136700507000
B2105403212029N10131571WA013230136900507000
B2105453212009N10131538WA013260137300407000
B2105503211986N10131516WA013340137900507000
B2105553211957N10131500WA013360138400807000
B2106003211926N10131493WA013400138900607000
B2106053211902N10131495WA013490139600407000
B2106103211883N10131502WA013670140700407000
B2106153211864N10131512WA013850142600607000
B2106203211846N10131526WA014040144800707000
B2106253211838N10131526WA014050146600807000
B2106303211829N10131535WA014080147200807000
B2106353211821N10131543WA014080147100807000
B2106403211814N10131559WA014040146700707000
B2106453211807N10131578WA014030146600607000
B2106503211808N10131600WA013960146200707000
B2106553211817N10131627WA013870145300807000
B2107003211843N10131662WA013820144500507000
B2107053211880N10131698WA013730143800507000
B2107103211921N10131733WA013730143300907000
B2107153211963N10131766WA013670142701007000
B2107203211999N10131804WA013700142500807000
B2107253211998N10131841WA013760142601007000
B2107303211978N10131851WA013820142900707000
B2107353211970N10131829WA013770143100807000
B2107403211970N10131794WA013760143300607000
B2107453211979N10131751WA013780143400907000
B2107503212013N10131709WA013800143800807000
B2107553212067N10131686WA013810144000507000
B2108003212122N10131683WA013830144100607000
B2108053212163N10131717WA013820144300607000
B2108103212186N10131759WA013810144300507000
B2108153212187N10131795WA013800144000807000
B2108203212174N10131803WA013840144100707000
B2108253212165N10131779WA013840144300707000
B2108303212186N10131735WA013870144700807000
B2108353212229N10131702WA013930145200707000
B2108403212289N10131705WA013940145400707000
B2108453212333N10131742WA013910145200507000
B2108503212354N10131786WA013960145200707000
B2108553212346N10131811WA013950145300707000
B2109003212330N10131812WA013940145300707000
B2109053212319N10131795WA013920145200807000
B2109103212313N10131759WA013840144900807000
B2109153212325N10131713WA013840144700807000
B2109203212344N10131670WA013830144500407000
B2109253212379N10131632WA013810144300607000
B2109303212439N10131611WA013730143800507000
B2109353212497N10131626WA013710143300807000
B2109403212545N10131656WA013720143400707000
B2109453212588N10131695WA013650143000507000
B2109503212611N10131740WA013670142900607000
B2109553212611N10131779WA013670142600807000
B2110003212633N10131823WA013680142500507000
B2110053212685N10131847WA013670142300707000
B2110103212741N10131850WA013640142100507000
B2110153212786N10131828WA013550141501007000
B2110203212787N10131795WA013420140101107000
B2110253212772N10131795WA013360139300907000
B2110303212771N10131824WA013320138700807000
B2110353212773N10131861WA013320138300707000
B2110403212778N10131901WA013310138100607000
B2110453212782N10131936WA013270138000707000
B2110503212786N10131978WA013200137700607000
B2110553212786N10132011WA013170137400707000
B2111003212764N10132033WA013110136500907000
B2111053212760N10132071WA012960135401007000
B2111103212790N10132110WA012900134000707000
B2111153212840N10132129WA012790132800807000
B2111203212897N10132133WA012690132000507000
B2111253212948N10132132WA012600131100407000
B2111303212996N10132128WA012510130300707000
B2111353213047N10132122WA012270128400607000
B2111403213090N10132105WA012120125900607000
B2111453213130N10132073WA011920123400507000
B2111503213165N10132037WA011760121400807000
B2111553213172N10132001WA011680120000907000
B2112003213159N10131983WA011540118700807000
B2112053213146N10131968WA011380117100607000
B2112103213129N10131957WA011200115300507000
B2112153213111N10131954WA011010113200807000
B2112203213088N10131949WA010820110900907000
B2112253213067N10131955WA010670109200807000
B2112303213043N10131953WA010520107501007000
B2112353213026N10131923WA010350105600807000
B2112403213021N10131888WA010310104900807000
B2112453213018N10131848WA010260104500707000
B2112503213012N10131805WA010230104400607000
B2112553212999N10131771WA010230104400607000
B2113003212995N10131727WA010250104500507000
B2113053213018N10131684WA010230104600807000
B2113103213061N10131651WA010230104700707000
B2113153213112N10131634WA010230105100407000
B2113203213162N10131613WA010170104601307000
B2113253213148N10131576WA010040103201407000
B2113303213117N10131573WA010080102500707000
B2113353213091N10131585WA010070102500807000
B2113403213067N10131583WA010090102700607000
B2113453213050N10131601WA010090102901207000
B2113503213067N10131645WA010040102600807000
B2113553213110N10131673WA010050102500507000
B2114003213159N10131660WA010010102501207000
B2114053213164N10131609WA010020102301207000
B2114103213145N10131587WA010010102301107000
B2114153213122N10131579WA010020102200807000
B2114203213109N10131576WA009990102200707000
B2114253213096N10131572WA009930101800707000
B2114303213077N10131580WA009950101700507000
B2114353213078N10131609WA009900101500907000
B2114403213105N10131635WA009920101600607000
B2114453213151N10131646WA009820101101007000
B2114503213199N10131634WA009780100800807000
B2114553213215N10131593WA009840100801207000
B2115003213193N10131573WA009890101001007000
B2115053213180N10131592WA009870101201107000
B2115103213196N10131623WA009840101100907000
B2115153213249N10131618WA009780100501607000
B2115203213255N10131570WA009730099501607000
B2115253213234N10131551WA009680099001207000
B2115303213213N10131547WA009630098500607000
B2115353213192N10131549WA009590097900807000
B2115403213171N10131546WA009600097900707000
B2115453213154N10131540WA009570097800707000
B2115503213149N10131564WA009450097400707000
B2115553213155N10131598WA009380096900607000
B2116003213194N10131626WA009270095901007000
B2116053213233N10131583WA009130093701407000
B2116103213220N10131547WA009050092101107000
B2116153213196N10131531WA009000091100907000
B2116203213172N10131520WA009010090600907000
B2116253213156N10131526WA008950090500807000
B2116303213141N10131540WA008940090800707000
B2116353213146N10131568WA008930090501507000
B2116403213197N10131558WA008840090301907000
B2116453213199N10131508WA008780089801807000
B2116503213176N10131499WA008780089201307000
B2116553213163N10131503WA008760089100807000
B2117003213145N10131503WA008640088500507000
B2117053213125N10131494WA008570087600707000
B2117103213104N10131479WA008510086700607000
B2117153213087N10131467WA008450086100707000
B2117203213072N10131470WA008300085200707000
B2117253213053N10131475WA008180083600707000
B2117303213035N10131471WA008110082200707000
B2117353213018N10131468WA008010081100707000
B2117403212999N10131465WA007900079900707000
B2117453212979N10131463WA007810078900707000
B2117503212961N10131467WA007750078100607000
B2117553212956N10131470WA007750077600907000
B2118003212956N10131471WA007750077500607000
B2118053212957N10131471WA007750077400507000
B2118103212957N10131470WA007750077400507000
B2118153212957N10131470WA007750077300507000
B2118203212957N10131471WA007750077400307000
B2118253212957N10131472WA007750077400307000
B2118303212957N10131473WA007750077400307000
B2118353212958N10131473WA007750077400407000
B2118403212958N10131475WA007750077400607000
B2118453212958N10131475WA007750077400507000
B2118503212957N10131478WA007750077400407000
B2118553212957N10131479WA007750077400707000
B2119003212957N10131479WA007750077300507000
B2119053212957N10131479WA007750077300507000
B2119103212957N10131479WA007750077200507000
B2119153212957N10131479WA007760077300307000
B2119203212957N10131478WA007760077300507000
B2119253212957N10131478WA007760077200507000
B2119303212957N10131478WA007760077200507000
B2119353212957N10131478WA007760077200507000
B2119403212957N10131478WA007760077200507000
B2119453212957N10131478WA007760077200507000
B2119503212957N10131478WA007760077200507000
B2119553212958N10131478WA007760077300407000
B2120003212958N10131478WA007760077200407000
B2120053212957N10131478WA007760077200407000
B2120103212957N10131478WA007760077200407000
B2120153212958N10131478WA007760077300407000
B2120203212957N10131478WA007760077200507000
B2120253212958N10131479WA007750077200407000
B2120303212958N10131479WA007750077200507000
B2120353212958N10131479WA007750077200507000
F212040051315252629
B2120403212959N10131480WA007750077300506000
F21204505131521252629
B2120453212959N10131480WA007760077300707000
B2120503212958N10131480WA007760077300507000
B2120553212958N10131480WA007760077300407000
B2121003212958N10131479WA007760077400407000
F212105051315252629
B2121053212957N10131479WA007760077400606000
F21211005131521252629
B2121103212957N10131479WA007760077400407000
B2121153212958N10131479WA007760077400607000
B2121203212958N10131480WA007760077400607000
B2121253212958N10131479WA007760077300607000
B2121303212957N10131479WA007760077400507000
B2121353212957N10131478WA007760077400407000
B2121403212957N10131478WA007760077400507000
B2121453212957N10131478WA007760077400407000
B2121503212957N10131479WA007760077400607000
F212155051315212629
B2121553212957N10131481WA007760077300606000
F21220005131521252629
B2122003212957N10131481WA007760077300607000
B2122053212958N10131482WA007760077300507000
B2122103212957N10131482WA007760077300607000
B2122153212957N10131483WA007760077300607000
B2122203212957N10131483WA007760077300607000
B2122253212956N10131483WA007760077300507000
B2122303212956N10131483WA007760077300407000
B2122353212956N10131483WA007760077300407000
B2122403212956N10131483WA007760077300507000
B2122453212957N10131483WA007760077300507000
B2122503212957N10131483WA007770077300507000
B2122553212957N10131483WA007780077300307000
B2123003212957N10131483WA007770077300307000
B2123053212957N10131483WA007770077300307000
B2123103212957N10131483WA007770077300307000
B2123153212957N10131483WA007760077300507000
B2123203212957N10131483WA007770077200507000
B2123253212957N10131483WA007770077200507000
B2123303212957N10131483WA007760077200507000
B2123353212957N10131483WA007760077200507000
B2123403212957N10131483WA007760077200507000
B2123453212956N10131484WA007760077200507000
B2123503212956N10131484WA007760077200307000
B2123553212956N10131484WA007760077200407000
B2124003212956N10131484WA007760077200507000
B2124053212956N10131484WA007760077200507000
B2124103212956N10131483WA007760077200507000
B2124153212956N10131483WA007760077100307000
B2124203212956N10131483WA007760077100307000
B2124253212956N10131483WA007760077200407000
B2124303212956N10131484WA007760077200507000
B2124353212956N10131484WA007760077200607000
B2124403212957N10131484WA007760077200607000
B2124453212956N10131484WA007760077200407000
B2124503212956N10131484WA007760077200407000
B2124553212956N10131484WA007760077200407000
B2125003212956N10131484WA007760077200407000
B2125053212956N10131484WA007760077200407000
B2125103212956N10131484WA007760077200407000
B2125153212956N10131484WA007760077200607000
B2125203212956N10131484WA007760077300607000
B2125253212956N10131484WA007760077200407000
B2125303212956N10131484WA007760077200507000
B2125353212956N10131485WA007760077200507000
B2125403212957N10131485WA007760077200607000
B2125453212957N10131485WA007760077200607000
B2125503212957N10131485WA007760077200607000
B2125553212957N10131485WA007760077300507000
B2126003212957N10131485WA007760077200607000
G7D06A43F8FBFB1889BB3803A14659857936B045A966CDB019E7FE5ED5206229C
